:10000000F8C0000012C1000010C100000EC10000C5
:100010000CC100000AC1000008C1000006C10000B8
:1000200004C1000002C100000C945F0FFEC000007C
:10003000FCC00000FAC00000F8C00000F6C00000DC
:10004000F4C00000F2C00000F0C00000EEC00000EC
:10005000ECC000000C94A50CE8C00000E6C0000055
:10006000E4C00000E2C00000E0C00000DEC000000C
:10007000DCC00000DAC00000D8C00000D6C000001C
:10008000D4C00000D2C00000D0C00000CEC000002C
:10009000CCC00000CAC00000C8C00000C6C000003C
:1000A000C4C00000C2C00000C0C0000005010902B9
:1000B000A1010901A1000509190129051500250162
:1000C00095057501810295017503810105010930CE
:1000D00009311581257F950275088106093815813A
:1000E000257F950175088106050C0A3802158125C2
:1000F0007F950175088106C0C005010906A10105AB
:100100000719E029E7150025017501950881029579
:1001100001750881010508190129059505750191E9
:1001200002950175039101150025FF0507190029A6
:10013000FF950675088100C00600FF0901A10109AD
:1001400002150025FF750895018102090315002598
:10015000FF750895089102C0120110010000000807
:10016000EB034D20010001020001090254000301CC
:1001700000C032090400000103010100092111013E
:100180000001223F00070581030800050904010062
:100190000103010200092111010001224D000705A0
:1001A000830308000509040200010300000009217F
:1001B0001101000122200007058703080005040340
:1001C0000904100355006E006E0061006D006500AB
:1001D00064000000140342004200200044006F004D
:1001E0006E0067006C006500000078253032580A08
:1001F000000011241FBECFEFDAE0DEBFCDBF11E05B
:10020000A0E0B1E0ECE4FAE202C005900D92A43463
:10021000B107D9F711E0A4E4B1E001C01D92AD39F6
:10022000B107E1F77BD30C942415EACEFF93EF934B
:10023000E0918601F0918701309709F00995EF91DF
:10024000FF910895FC018591803011F0EFDFFBCF25
:100250000895FF27E0E230E247FF0CC0419597FF89
:1002600009C0EDE26095709580959095611D711DB6
:10027000811D911D27FF02C0219530E350E2AA277E
:10028000660F771F881F991FAA1FA41710F0A41BC1
:1002900063955A95A9F7AA3008F0A95FA05DAF93BE
:1002A000F395611571058105910541F7ED3211F462
:1002B000EF93F395F21718F43F93F395FBCF8F91DB
:1002C000B5DFFA95E1F70895E991F99185918030CC
:1002D00021F0853219F0AADFF9CF089520E0E894E3
:1002E00055915532C1F3503311F4689455915A33F6
:1002F00048F4505390F3220F022E220F220F200DAC
:10030000250FF4CF0EF4219589919991533619F365
:10031000533729F1533559F1BC0188279927E894BF
:100320005C3621F48991999168945591543639F449
:1003300046EF7EF077FF0DC08FEF9FEF0AC0553775
:100340004AE039F0583540E121F0523642E009F0F8
:100350000895FF93EF937DDFEF91FF91B7CFFF9368
:10036000EF93FC0181918030B9F360DFFBCFFF9305
:10037000EF9368DFF1CFDF93CF93CDB7DEB725964C
:10038000A3DFCF91DF91089525B1982F9170922B23
:1003900095B92BB1982F9072922B9BB998B1807818
:1003A000982B98B9089525B1982F91709095922324
:1003B00095B92BB1982F9072909592239BB998B1D3
:1003C00080788095982398B9089581E090914A01AA
:1003D000891B80934A010895809145018170089599
:1003E0008170909145019C73892B809345010895FC
:1003F000809145018C730895809145018270089524
:10040000282F332727FD30954091450160FF0BC011
:100410002E5F3F4F81E090E002C0880F991F2A9520
:10042000E2F7482B0BC02E5F3F4F81E090E002C007
:10043000880F991F2A95E2F780954823409345013C
:10044000089581E591E0089586E591E00895809111
:1004500046010895809144010895809346010895CE
:10046000809344010895FC0180818F718083809185
:100470004401882371F580914B01882351F58181D6
:10048000813C14F481E805C0880F803414F08FE7B4
:1004900001C0880F81838281813C14F481E805C00A
:1004A000880F803414F09FE702C0982F990F928331
:1004B00081818093520190935301838180935401F1
:1004C00084818093550180818093510181E08093E4
:1004D00044018081883071F0893028F4853069F0DA
:1004E0008630C1F40FC0803151F0843181F08C30FE
:1004F00089F40AC080E061E004C081E004C080E0CB
:1005000060E07ECF80E06CCF10924B01089581E0D7
:1005100080934B010895CF93DF93EC015DDF882337
:1005200071F480914701909148018C0F9D1F909329
:10053000480180934701885E934098F120C08091E4
:100540004901882369F080914701909148018C0FFF
:100550009D1F9093480180934701C29710F10FC0EF
:100560004BDF8823A9F080914701909148018C0FBF
:100570009D1F90934801809347010A9790F013B80C
:1005800019B880E886B9109248011092470109C055
:1005900080914A01882319F480E805DF02C080E8D1
:1005A000F3DEDF91CF910895089515BC08958091F1
:1005B0000E0190910F01009729F0019790930F0180
:1005C00080930E0180911E0190911F01009729F0E8
:1005D000019790931F0180931E0180912E019091AD
:1005E0002F01009729F0019790932F0180932E01FE
:1005F0000895EF920F93CF93DF9341E080309407FB
:1006000009F4A8C08052914009F0A4C0E901088112
:10061000002309F065C08981863011F1873040F4EC
:100620008330C9F08430D1F0823009F093C008C023
:100630008830F9F0883078F1893009F08BC022C019
:100640005D8140E08C81480F511D8A816B812E8134
:100650000F8179D57FC08A81E5D27CC0BFD27AC0B4
:10066000B4DE8A816B814C812D810E81EF804CD26A
:1006700071C0ABDE8A816B814C812D810E81EF8050
:1006800058D268C0A2DE8A816B814C812D810E8197
:10069000EF8064D25FC06B81663049F44C814F308B
:1006A00019F48D8181FF1AC08A8166E006C04C81F1
:1006B000683051F4403320F48A812D8137D54AC007
:1006C0008A8168E0DBD246C08D81453628F48536C4
:1006D00098F7481788F302C0853670F38A81F2CF05
:1006E000013089F489DE8823A9F1898180588093BB
:1006F00052018A818058809353018B8180935101EC
:100700000093440127C0023041F489818093450160
:1007100010924401109246011DC00330D9F46CDEE2
:100720008823C1F08981809358018A81809359017F
:100730008B8180935A018C8180935B018D818093A2
:100740005C018E8180935D018F818093560181E0F1
:1007500080934601DF91CF910F91EF9008950F9311
:100760001F93CF93DF93AC01E90181E0403058073C
:1007700069F0A1E040315A0709F43FC081E083B934
:1007800019B816B840525140B1F556C01882C90187
:100790000296FC0186E0DF011D928A95E9F78091BF
:1007A0004601882319F118DE882359F0809145010C
:1007B000829586958695837090915601892B8883C2
:1007C00001C01882809158018A83809159018B83DE
:1007D00080915A018C8380915B018D8380915C01B3
:1007E0008E8380915D018F831092460188E090E0B6
:1007F000F8019183808380E02CC019821A821C82C8
:100800001B8280914401882389F080915201898361
:10081000809153018A83809154018B83809155018B
:100820008C838091510188831092440185E090E08F
:10083000D8018D939C930CC013B880E289B916B887
:1008400080914501888381E090E0F8019183808365
:1008500081E0DF91CF911F910F91089580E091E0A9
:100860000E94991280E191E00E94991280E291E049
:100870000C94991280E091E00E94781280E191E05E
:100880000E94781280E291E00E947812E2EEF0E09D
:10089000808184608083089503D58823A1F481EA50
:1008A00082DDE4D5882311F480E806C0853011F498
:1008B00080E202C0813009F467CD833021F481E009
:1008C00063DD80E261CD089584B7877F84BF88E1CE
:1008D0000FB6F89480936000109260000FBE80E025
:1008E00090E020E80FB6F8942093610080936100B7
:1008F0000FBE6A98729A209A2898559A5D983F9AE6
:1009000047980E94420FE0D783E392E090935F0103
:1009100080935E018EE591E0C7D7BECF0F931F9302
:10092000D3DF80EA9FE00197F1F78CB18095847066
:1009300080934C0181EA37DD80E260E04AE050E0DC
:1009400020E000E000D4789411E00CB10095047030
:1009500080914C01081728F43FDD212F281B822F9E
:100960003FDD00934C0176D580914F01909150016D
:10097000C1D7D1DD80914F0190915001BBD78BD071
:100980003BDD882331F480914F0190915001B2D723
:1009900039D4A3D79093500180934F0180914D019A
:1009A00090914E01A7D78958934128F096D79093FC
:1009B0004E0180934D0180E091E00E94A91180E1F9
:1009C00091E00E94A91180E291E00E94A9110E9489
:1009D0009411BBCFDA019330C1F0943030F49130F0
:1009E00051F0923009F04FC00BC0913221F1923298
:1009F00009F049C032C0E8E5F1E022E130E047C04B
:100A0000EAE6F1E024E530E042C0813051F0813087
:100A100020F0823009F037C008C0EEEBF1E084919D
:100A200007C0E2ECF1E0849103C0E4EDF1E08491D1
:100A3000282F30E02CC0613041F0613018F0623076
:100A400011F508C0ECE7F1E002C0E5E9F1E029E0CA
:100A500030E01DC0EEEAF1E0FACF613051F06130D4
:100A600018F0623081F40AC0E9EFF0E02FE330E0E3
:100A70000EC0ECEAF0E02DE430E009C0E8E3F1E07C
:100A800020E230E004C0E0E0F0E020E030E0ED9370
:100A9000FC93C901089520917B0130917C0147E0CE
:100AA000213D340750F18FEF809330018093310165
:100AB0008093320180933301809334018093350118
:100AC00083E0809336011092370110923801109222
:100AD000390110923A0110923B0110923C011092A0
:100AE0003D0180ED97E090937C0180937B0185B17F
:100AF00085B95D9888B188B90895280F391F30935A
:100B00007C0120937B010895EF920F938093300135
:100B100060933101409332012093330100933401FB
:100B2000E092350110927C0110927B010F91EF90C1
:100B30000895EF920F9380933601609337014093AD
:100B400038012093390100933A01E0923B01109261
:100B50007C0110927B010F91EF900895EF920F931B
:100B6000809338016093390140933A0120933B010F
:100B700000933C01E0923D0110927C0110927B01B8
:100B80000F91EF900895482FE0917501F091760153
:100B900007C08081841731F0848595859C01F90117
:100BA0003097B9F7CF0108950F931F93CF93DF9339
:100BB000EC01EA85FB8509C013810481CF010E9405
:100BC000AF14212F302FC901FC013097A9F71B86E4
:100BD0001A86DF91CF911F910F9108950F931F9364
:100BE000CF93DF93C0917501D09176010BC01C8526
:100BF0000D85CE01D9DFCE010E94AF14212F302FF9
:100C0000C901EC01209799F785B185B98BB18BB9F2
:100C100047981092760110927501DF91CF911F9144
:100C20000F910895CF93DF93682F409175015091F4
:100C30007601EA01E0E0F0E005C0FE018C859D85CB
:100C40009C01E9012097B9F088818617B1F70DC0A2
:100C5000909376018093750102C095878487CE01B9
:100C6000A3DFCE010E94AF1406C08C859D85C417FA
:100C7000D50799F7EDCFDF91CF9108951F93CF93CB
:100C8000DF93162F80DFEC01009711F14A855B8519
:100C9000FA01A0E0B0E005C0DF01838194819C01EE
:100CA000F9013097A9F080818117B1F70BC09B87BC
:100CB0008A8704C014969C938E931397CF010E9449
:100CC000AF1406C083819481E417F50799F7EFCF3D
:100CD000DF91CF911F9108950F931F93CF93DF93CF
:100CE000FC01C285D385058102950F7010E080DB81
:100CF00090E0969587959695879580239123892BEB
:100D000009F461C06091360141E050E0062E02C056
:100D1000440F551F0A94E2F780913701A82FB0E0E5
:100D20004DC0E881E63091F42A81898190E08423E6
:100D30009523892B09F447C0822F90E021FF3AC008
:100D400081709070A817B907A9F13DC0E830C9F4C7
:100D50009981903378F5892F869586958695E82F29
:100D6000F0E0E05DFE4F208530E0880F880F880FAF
:100D7000981B02C0359527959A95E2F720FD1AC079
:100D800022C0EE2319F46230A9F404C0E53011F456
:100D9000662381F4F0E0E05DFE4FE081E53698F4F3
:100DA0008981853610F4E81770F08A81853610F451
:100DB0008E1748F08B819C819C01E901209709F0F6
:100DC000B0CF81E001C080E0DF91CF911F910F9102
:100DD00008954F925F926F927F928F929F92BF92EF
:100DE000CF92DF92EF92FF920F931F93CF93DF93F7
:100DF000EC012ADB7C0100E010E066247724CC249F
:100E0000DD24BB2441E0442E512C34EF832E31E00D
:100E1000932E1CC12D81822F90E0837090708130C1
:100E2000910509F4F2C0823091051CF4892B09F177
:100E300008C18230910521F0039709F002C119C061
:100E4000CE014ADF813069F48E819F81A885B98502
:100E50000097A105B10509F0F4C08D8183608D83F1
:100E6000F0C08D818C7F8D831E821F82188619862B
:100E7000E8C08E819F81A885B9850097A105B1053D
:100E800009F0DFC08091770190917801A0917901FC
:100E9000B0917A010097A105B10509F0D2C09CDAA2
:100EA000882309F4CEC0CE0117DF813009F0C9C014
:100EB0003C813323E9F02D81822F90E08370907084
:100EC000892BB1F42C7F22602D83832F90E09C012D
:100ED000289DC001299D900D389D900D1124AA27B1
:100EE00097FDA095BA2F8E839F83A887B987A9C045
:100EF0008881883E08F057C0BB2009F0A2C0F701E6
:100F0000828310828D8183FF02C081E080838D8186
:100F100082FF04C0F7018081826080838D818C7F95
:100F200081608D83898190E09C01289DC001299D6D
:100F3000900D389D900D1124AA2797FDA095BA2FEA
:100F40008093770190937801A0937901B0937A010F
:100F500081E083DA8C859D850115110529F4909334
:100F600076018093750103C0F80195878487C114C9
:100F7000D10411F46E0103C0F301D587C4870115B4
:100F8000110519F0302F212F04C0309175012091E7
:100F900076011D861C863E01832F922F9C01E9015C
:100FA000BB24B3944EC0805F853008F04AC049DA54
:100FB000FC0111821282888190E0805F9040920152
:100FC00002C0220F331F8A95E2F7C9012081282B26
:100FD0002F7120838D818C7F81608D83898190E04A
:100FE000FC01E89DC001E99D900DF89D900D112434
:100FF000AA2797FDA095BA2F809377019093780147
:10100000A0937901B0937A0117C02C7F2D836A8158
:101010007B8180E090E024E630E040E050E00E94F8
:10102000E3136E837F83888799878881805F85300B
:1010300030F407DAFC01108281E012DA02C081E0AC
:101040000CDA8E018C859D859C01E901209709F0C1
:10105000E1CE2B2D30E0E6E0F0E0E21BF30B2E5F5B
:101060003F4F2E0D3F1DC90160E070E0AF010E94AF
:101070001D158091750190917601892B21F0F80161
:10108000D586C48604C0D0927601C0927501DF91E6
:10109000CF911F910F91FF90EF90DF90CF90BF9075
:1010A0009F908F907F906F905F904F900895FF92E8
:1010B0000F931F93CF93DF93F62E65DD8C0100977E
:1010C00019F4A0E0B0E02BC0FC01A285B385C0E01C
:1010D000D0E008C08C918F1511F1ED018B819C81BE
:1010E0009C01D9011097B1F785E090E00E940214AD
:1010F000FC01DC01009731F485B185B98BB18BB966
:10110000479A0DC014821382F082F801828593857C
:10111000892B19F4B387A28702C0BC83AB83CD01AE
:10112000DF91CF911F910F91FF9008950F931F931F
:10113000142F022FBCDFFC01009711F011830283F2
:101140001F910F910895CF92DF92EF92FF920F932C
:101150001F93CF93DF93182FD62E7A01C22EE091E2
:101160007501F0917601C0E0D0E005C0EF01848503
:1011700095859C01F901309721F080818117B1F7A5
:101180002BC08EE090E00E940214FC01009731F425
:1011900085B185B98BB18BB9479A2BC0000F000F71
:1011A00005831682178210861186D182F382E2822D
:1011B000C482108313861286158614868091750169
:1011C00090917601892B29F4F0937601E0937501D3
:1011D00010C0FD87EC870DC0000F000F0583D18282
:1011E000F382E282C4821682178210861186CF01B2
:1011F000DBDCDF91CF911F910F91FF90EF90DF909B
:10120000CF900895E0917501F0917601AC0160E016
:1012100070E01AC086819781A085B18584179507F3
:10122000A607B70728F480E090E0A0E0B0E004C093
:10123000841B950BA60BB70B86839783A087B1877A
:10124000848595859C01F901309721F7809177017C
:1012500090917801A0917901B0917A018417950756
:10126000A607B70728F480E090E0A0E0B0E004C053
:10127000841B950BA60BB70B809377019093780195
:10128000A0937901B0937A01E5D8882341F4DFD89F
:10129000882329F480917501909176019ACD089563
:1012A0008091820108958BEE36D28A3FB9F525D21E
:1012B00080937D0122D280937E011FD2382F20910E
:1012C0007E01222351F4882359F480917D0190E01E
:1012D00087709070892B21F417C0203809F421E819
:1012E00020937E01303809F431E880917D018770C8
:1012F00080937D01319530937F011092800110928F
:1013000081018DE791E0D5D210927E0110927F018C
:10131000109280011092810110927D0108951F9317
:101320008BEEF9D18A3F39F5E8D1182FE6D18093B9
:101330007E01E3D180937F01E0D1482F109281019B
:10134000812F90E09C012074307053E035952795F3
:101350005A95E1F78078907033E0959587953A95A6
:10136000E1F7282B1770212B20937D0190917E01AE
:10137000992369F403C01092820126C080917F01F5
:10138000882341F4442331F4222321F413C09038FC
:1013900009F491E890937E0180917F01803809F4EF
:1013A00081E8819580937F014195409380018DE78D
:1013B00091E07FD210927E0110927F011092800105
:1013C0001092810110927D011F9108951F938BEE61
:1013D000A2D18A3FA1F491D1182F8FD180937E01A1
:1013E0008CD180937F0189D1282F109281011770B1
:1013F00010937D0190917E01992369F403C01092AE
:10140000820126C080917F01882341F4222331F498
:10141000112321F413C0903809F491E890937E01D0
:1014200080917F01803809F481E8819580937F0164
:101430002195209380018DE791E03BD210927E01AF
:1014400010927F01109280011092810110927D0113
:101450001F91089580918201833029F0853021F019
:10146000813019F420CFB2CF5ACF08951F93109234
:101470008201EDD180E197E220E931E0F901319775
:10148000F1F70197D9F78FEF46D18A3F09F067C08E
:1014900034D133D1882319F481E08093820188EE1E
:1014A0003AD18A3F09F05BC083E035D18A3F09F029
:1014B00056C086EE30D18A3F09F051C086EE2BD15E
:1014C0008A3F09F04CC086EE26D18A3F09F047C01A
:1014D00089EE21D18A3F09F042C00FD10ED1182FD9
:1014E0000CD1133321F4853511F485E020C083EF4E
:1014F00012D18A3F09F033C088EC0DD18A3F79F5CB
:1015000083EF09D18A3F59F584E605D18A3F39F541
:1015100083EF01D18A3F19F580E5FDD08A3FF9F4C8
:1015200082EFF9D08A3FD9F4E8D0833011F4809368
:10153000820188EEF0D08A3F91F483E0ECD08A3FBC
:1015400071F486EEE8D08A3F51F483EFE4D08A3F0D
:1015500031F488ECE0D08A3F11F480EFDCD0809148
:1015600082011F9108951F93CF93DF93EC0115E043
:1015700004C0812F8A95F1F721977CD1882311F03F
:101580002097B9F7CE01DF91CF911F9108951F9356
:10159000CF93DF93EC0115E004C0812F8A95F1F71A
:1015A000219768D1882311F42097B9F7CE01DF91F4
:1015B000CF911F91089558D16CC1DF92EF92FF92A5
:1015C0000F931F93CF93DF931092830150D161D17A
:1015D00084E690E0C8DF892B51F05ED1882309F4BE
:1015E0007FC085E08A95F1F757D182E04EC081E057
:1015F0004CC083E04AC000E011E0C0E0D0E0DD2450
:10160000D39481E0E82EF12C82E390E0ACDF892BCB
:1016100011F484E03AC040D1882349F01D25C70168
:101620000C2E02C0880F991F0A94E2F7082B82E360
:1016300090E0ADDF892B11F485E027C02196C830FA
:10164000D10511F782E390E08EDF892B11F486E05B
:101650001CC022D1811711F080E117C082E390E015
:1016600096DF892B11F487E010C082E390E07BDFE6
:10167000892B51F011D1882309F039C085E08A9572
:10168000F1F70AD189E001C088E0809383012091BD
:1016900083012430D0F004C08AE0F7CF8CDF17C07C
:1016A00000D000D0EDB7FEB731968AEE91E0ADB72D
:1016B000BEB712969C938E931197228313820E9439
:1016C000BB010F900F900F900F9075DF00E0802FFF
:1016D000DF91CF911F910F91FF90EF90DF900895D0
:1016E00082E390E054DF892B09F483CF84CF82E337
:1016F00090E04DDF892B81F2D1CF1F931AEF5DDF90
:10170000982F11501F3F21F0809183018823B9F752
:10171000892F1F910895DF92EF92FF920F931F93ED
:10172000CF93DF93F82E1092830145DF80E991E09B
:101730000197F1F7ABD09BD080E197E214DF892BC2
:1017400011F48AE075C011E0C0E0D0E090E5D92E38
:10175000EF2CFF2401E08D2D8A95F1F7C7010C2EA7
:1017600002C0959587950A94E2F780FF03C0102781
:1017700090D001C08BD082E390E009DF892B11F477
:1017800082E056C082E390E0EEDE892B11F483E024
:101790004FC02196C830D105F1F680E58A95F1F762
:1017A000112311F076D001C071D082E390E0EFDE1A
:1017B000892B11F484E03CC082E390E0D4DE892BD5
:1017C00011F485E035C080E58A95F1F762D0C2E377
:1017D000D0E015E004C0812F8A95F1F721975CD005
:1017E000882319F02097B9F702C0CD2B11F486E0B9
:1017F0001FC082E390E0B7DE892B11F487E018C0A8
:1018000082E390E0C4DE892B21F0C2E3D0E015E052
:1018100006C088E00DC0812F8A95F1F721973CD052
:10182000882319F42097B9F702C0CD2B31F489E051
:1018300080938301C0DE80E002C0BDDE5EDFDF9109
:10184000CF911F910F91FF90EF90DF9008950BD0F3
:101850001CD088EA91E620E931E0F9013197F1F7EF
:101860000197D9F7A8CE08955998519A089551989B
:10187000599A08955198599A85E08A95F1F789B156
:1018800090E0969587958170089508955898509A9C
:1018900008955098589A08955098589A85E08A95D6
:1018A000F1F789B181700895909385018093840147
:1018B0000895E0918401F0918501309721F0019025
:1018C000F081E02D0995089582E084BD93E095BDF7
:1018D0009AEF97BD80936E0008958FB7F89420918A
:1018E00088013091890140918A0150918B018FBF0D
:1018F000C9010895EF92FF920F931F93BC018FB718
:10190000F894E0908801F090890100918A0110918B
:101910008B018FBFA801970140705070CB01A0E0F0
:10192000B0E0281739074A075B0720F09701261B0C
:10193000370B05C09B01209530952E0D3F1DC90129
:101940001F910F91FF90EF9008951F920F920FB685
:101950000F9211248F939F93AF93BF93809188012F
:1019600090918901A0918A01B0918B010196A11DEE
:10197000B11D8093880190938901A0938A01B0934F
:101980008B01BF91AF919F918F910F900FBE0F90E0
:101990001F9018959C01409197015091980146170E
:1019A000570718F4F90190E043C06115710511F073
:1019B000AB01F8CF8091E8008E778093E80040E09B
:1019C00050E0F0CF80919001882309F447C0853022
:1019D00009F446C08091E80083FD44C08091E8008E
:1019E00082FD36C08091E80080FF22C08091F30024
:1019F0009091F200782F60E0292F30E0262B372BD2
:101A000007C081918093F100415050402F5F3F4FBC
:101A10004115510519F02830310598F390E0283030
:101A2000310509F491E08091E8008E778093E80019
:101A30004115510539F6992329F60AC08091900184
:101A4000882361F0853061F08091E80083FD0AC051
:101A50008091E80082FFF2CF80E0089582E008954F
:101A600083E0089581E008959C016115710529F4D2
:101A70008091E8008B778093E800F90127C080917E
:101A80009001882399F1853099F18091E80083FFD6
:101A900002C081E008958091E80082FFF0CF06C087
:101AA0008091F10081936150704059F02091F300D2
:101AB0008091F200322F20E090E0822B932B892B33
:101AC00079F78091E8008B778093E80061157105C4
:101AD000B1F606C080919001882341F0853041F035
:101AE0008091E80080FFF6CF80E0089582E00895BD
:101AF00083E008959C014091970150919801461709
:101B0000570718F4F90190E044C06115710511F010
:101B1000AB01F8CF8091E8008E778093E80040E039
:101B200050E0F0CF80919001882309F448C08530BF
:101B300009F447C08091E80083FD45C08091E8002A
:101B400082FD37C08091E80080FF23C08091F300C0
:101B50009091F200782F60E0292F30E0262B372B70
:101B600008C084918093F1003196415050402F5F1E
:101B70003F4F4115510519F02830310590F390E0A1
:101B80002830310509F491E08091E8008E77809348
:101B9000E8004115510531F6992321F60AC08091DC
:101BA0009001882361F0853061F08091E80083FD29
:101BB0000AC08091E80082FFF2CF80E0089582E0C1
:101BC000089583E0089581E00895BF92CF92DF9257
:101BD000EF92FF920F931F93CF93DF93182F092F4C
:101BE0007B016A01D9D0B82E8823B1F5812F902FBF
:101BF0009C01E901C114D10439F0F6018081918181
:101C0000E81AF90AC80FD91F00E010E022C080913D
:101C1000E80085FD16C08091E8008E778093E8008B
:101C200083D3C114D10449F0F60180819181800FE2
:101C3000911F9183808385E010C0AED0882349F046
:101C40000CC089918093F1000894E108F1080F5FBE
:101C50001F4FE114F104D9F68B2DDF91CF911F9125
:101C60000F91FF90EF90DF90CF90BF900895382FA5
:101C7000282F2EC0822F8F708093E900231721F424
:101C8000762F942F50E006C07091EC009091ED00FB
:101C90005091F00091FF1BC08091EB008E7F8093EC
:101CA000EB008091ED008D7F8093ED008091EB0043
:101CB00081608093EB007093EC009093ED00509363
:101CC000F0008091EE0087FD02C080E008952F5F54
:101CD000273080F23F703093E90081E008950F9340
:101CE0001F93CF93DF93062FEC0110E02AC0988159
:101CF000992329F16B81E981FA812C81892F8F70D9
:101D0000873018F5223010F452E001C056E040E070
:101D100028E030E003C04F5F220F331F2E173F072C
:101D2000D0F36295660F660F607C991F9927991F03
:101D3000692B4295407F452B9ADF882331F01F5F46
:101D400025961017A0F281E001C080E0DF91CF91CD
:101D50001F910F9108958091910188239CF404C0F4
:101D6000809190018823B9F08091E80082FFF8CF3C
:101D70008091E8008B778093E8000895809190012E
:101D8000882349F08091E80080FFF8CF8091E80037
:101D90008E778093E80008954091E4005091E5002B
:101DA00024E68091EC0080FF24C08091E80080FD53
:101DB0001EC080919001882311F482E0089585303F
:101DC00011F483E008958091EB0085FF02C081E06B
:101DD00008958091E4009091E5008417950709F338
:101DE000222311F484E008952150AC01DACF80E081
:101DF00008958091E80082FFDCCFF9CFEF92FF9247
:101E00000F931F934FD056D008ED10E0F80180815A
:101E10008F77808380818068808380818F7D8083BD
:101E200019BC1092900110928C0110928E011092A8
:101E30008D0180EEE82EF12CF70180818B7F80836D
:101E4000F80180818160808380E060E042E00FDF04
:101E5000E1EEF0E080818E7F8083E2EEF0E0808131
:101E600081608083808188608083F70180818E7F9C
:101E70008083F8018081806180831F910F91FF90A2
:101E8000EF900895E8EDF0E080818F7E8083E7EDAC
:101E9000F0E080818160808384E082BF81E0809374
:101EA0008F01ACCFE8EDF0E080818E7F80831092CF
:101EB000E20008951092DA001092E10008951F9256
:101EC0000F920FB60F9211242F933F934F935F936E
:101ED0006F937F938F939F93AF93BF93EF93FF93F2
:101EE0008091E10082FF0BC08091E20082FF07C079
:101EF0008091E1008B7F8093E1000E94D702809166
:101F0000DA0080FF1FC08091D80080FF1BC0809145
:101F1000DA008E7F8093DA008091D90080FF0DC0B7
:101F200080E189BD82E189BD09B400FEFDCF81E079
:101F3000809390010E94D40205C019BC10929001B8
:101F40000E94D5028091E10080FF18C08091E200DC
:101F500080FF14C08091E2008E7F8093E200809128
:101F6000E20080618093E2008091D80080628093DB
:101F7000D80019BC85E080939001D5D18091E10013
:101F800084FF2FC08091E20084FF2BC080E189BDD7
:101F900082E189BD09B400FEFDCF8091D8008F7D1C
:101FA0008093D8008091E1008F7E8093E100809142
:101FB000E2008F7E8093E2008091E2008160809356
:101FC000E20080918C01882311F084E007C08091A9
:101FD000E30087FD02C081E001C083E080939001AF
:101FE000A2D18091E10083FF22C08091E20083FFB3
:101FF0001EC08091E100877F8093E10082E08093A2
:10200000900110928C018091E1008E7F8093E1001D
:102010008091E2008E7F8093E2008091E2008061F7
:102020008093E20080E060E042E021DE7CD1FF911D
:10203000EF91BF91AF919F918F917F916F915F9140
:102040004F913F912F910F900FBE0F901F901895B9
:102050001F93DF93CF93CDB7DEB7AC970FB6F8944D
:10206000DEBF0FBECDBFE1E9F1E08091F1008193C9
:1020700021E0E939F207C9F70E942E048091E800B7
:1020800083FF39C18091910130919201353009F47B
:1020900087C0363040F43130C9F1313070F0333020
:1020A00009F029C133C0383009F4F6C0393009F4D9
:1020B00005C1363009F01FC196C0803821F0823842
:1020C00009F019C108C090918D0180918E0188237B
:1020D00099F0926011C0809195018F708093E90012
:1020E0008091EB0090E025E0969587952A95E1F7A1
:1020F000982F91701092E9008091E800877F80937B
:10210000E8009093F1001092F100D1C0882319F0FB
:10211000823009F0F0C090E08F719070009721F04C
:10212000029709F0E8C00CC080919301813009F05A
:10213000E2C010928E01333069F580938E012AC07F
:1021400080919301882331F5209195012F7009F436
:10215000D2C02093E9008091EB0080FF1BC0333098
:1021600021F48091EB00806213C08091EB008061CC
:102170008093EB0081E090E002C0880F991F2A95C0
:10218000E2F78093EA001092EA008091EB00886009
:102190008093EB001092E9008091E800877F8AC06D
:1021A000882309F0A8C0109193011F778091E30064
:1021B0008078812B8093E3008091E800877F809373
:1021C000E800C9DD8091E80080FFFCCF8091E3004A
:1021D00080688093E300112311F482E001C083E062
:1021E0008093900188C08058823008F084C080912C
:1021F00093019091940123E08C3D920709F033C044
:1022000083E08C838AE28B837FB7F894DE01159696
:102210006EE040E050E011E2E62FF0E0109357004E
:10222000849140FF03C082958F706F5F8F70282F5D
:1022300030E08A3018F0C901C79602C0C901C096C3
:102240008D939D934F5F5F4F4431510529F77FBFB9
:102250008091E800877F8093E800CE0103966AE2D0
:1022600070E098DB13C060919501AE014F5F5F4F46
:102270000E94EA04BC01009709F43DC08091E80087
:10228000877F8093E80089819A8134DC8091E8001F
:102290008B778093E8002FC0803869F58091E80043
:1022A000877F8093E80080918C018093F10080917A
:1022B000E8008E778093E8004EDD1DC08823D9F4B6
:1022C000909193019230B8F48091E800877F8093D9
:1022D000E80090938C013FDD80918C01882331F4DC
:1022E0008091E30087FD02C081E001C084E080931B
:1022F00090010E943A048091E80083FF0AC0809117
:10230000E800877F8093E8008091EB0080628093F3
:10231000EB00AC960FB6F894DEBF0FBECDBFCF91E9
:10232000DF911F91089508951F9380919001882354
:1023300071F01091E9008091EC001092E900809119
:10234000E80083FF01C084DE1F701093E9001F9135
:1023500008954F925F926F927F928F929F92AF9269
:10236000BF92CF92DF92EF92FF920F931F93DF9372
:10237000CF9300D00F92CDB7DEB77C016DB67EB69D
:1023800080919001843009F09AC02091E40030914E
:10239000E500F701828593858217930709F48FC0C2
:1023A00081818F708093E9008091E80085FF87C06C
:1023B0005DB64EB6408550E08DB79EB7841B950B39
:1023C0000FB6F8949EBF0FBE8DBF0DB71EB70F5F3F
:1023D0001F4F19821B821A82C02E912EC80160E005
:1023E00070E050E02AD3C701BE016F5F7F4F40E02D
:1023F00098018E010E5F1F4F0E94AF03882EF701D8
:1024000084859585892B19F4AA24BB240BC020E070
:10241000F70186859785892B09F021E081E028273F
:10242000A22EBB24F701068117810115110511F4B5
:10243000DD2412C04A815B818C2D992DB801E7D231
:10244000DD24009711F0DD24D394F7014085C80105
:102450006C2D792D50E0E8D28A819B81892B01F186
:10246000882021F4DD2011F4AB28D1F0F701848518
:1024700095859787868781818F708093E900898110
:10248000882311F08093F1006A817B818C2D992D36
:1024900040E050E09ADB8091E8008E778093E8007E
:1024A0008091E4009091E500F70193878287252DC4
:1024B000342DC9010FB6F8949EBF0FBE8DBF0FB665
:1024C000F8947EBE0FBE6DBE0F900F900F90CF910F
:1024D000DF911F910F91FF90EF90DF90CF90BF9011
:1024E000AF909F908F907F906F905F904F900895E6
:1024F000CF93DF93DC010996FC0187E0EF0119928D
:102500008A95E9F781E019968C93199784EF91E009
:102510001D969C938E931C9783E014968C9314972E
:10252000CD01019661E0DBDB811181E0DF91CF918C
:1025300008956F927F928F929F92AF92BF92CF92A7
:10254000DF92EF92FF920F931F93DF93CF9300D010
:102550000F92CDB7DEB76C016DB67EB68091E80004
:1025600083FF1AC1F601808190E02091950130919E
:1025700096012817390709F00FC180919201833025
:1025800009F4B2C0843030F4813071F0823009F047
:1025900003C1E6C08A3009F4CBC08B3009F4B5C062
:1025A000893009F0F9C05CC080919101813A09F04D
:1025B000F3C09DB68EB61B821A8280919301109152
:1025C00094018983F601408550E08DB79EB7841B46
:1025D000950B0FB6F8949EBF0FBE8DBFEDB6FEB63D
:1025E0000894E11CF11CBE2CAF2CC70160E070E028
:1025F00050E023D21150C601BE016F5F7F4F412FC3
:1026000097018E010E5F1F4F0E94AF03F6012681D6
:1026100037812115310529F04085C901B70150E006
:1026200003D21092E9008091E800877F8093E80050
:102630008981882311F08093F1006A817B818B2D41
:102640009A2DA8D98091E8008B778093E800292DF6
:10265000382DC9010FB6F8949EBF0FBE8DBF9CC028
:1026600080919101813209F097C09DB68EB600919C
:10267000970110919801A0909301B09094018DB7AB
:102680009EB7801B910B0FB6F8949EBF0FBE8DBFF7
:10269000EDB6FEB60894E11CF11C8091E800877F3E
:1026A0008093E800C701B801DFD98091E8008E77F8
:1026B0008093E80080E090E0AA2011F081E090E0B3
:1026C000BA94E80EF91E081B190BC6016A2D4B2D92
:1026D00097010E94F902892D982D9C010FB6F8945C
:1026E0003EBF0FBE2DBF58C080919101813A09F0C5
:1026F00053C08091E800877F8093E8008091E800D4
:1027000080FFFCCFF60181853FC08091910181322D
:1027100009F042C08091E800877F8093E8001BDBCE
:1027200090E080919301811191E0F601918734C08E
:1027300080919101813281F58091E800877F8093BB
:10274000E80009DB8091930190919401807036E05C
:10275000969587953A95E1F7F601958784871CC091
:1027600080919101813AC1F48091E800877F809344
:10277000E8008091E80080FFFCCFF6018485958514
:1027800096958795969587958093F1008091E800BE
:102790008E778093E800DFDA0FB6F8947EBE0FBE26
:1027A0006DBE0F900F900F90CF91DF911F910F9101
:1027B000FF90EF90DF90CF90BF90AF909F908F9061
:1027C0007F906F900895629FD001739FF001829F68
:1027D000E00DF11D649FE00DF11D929FF00D839FB0
:1027E000F00D749FF00D659FF00D9927729FB00D4D
:1027F000E11DF91F639FB00DE11DF91FBD01CF0160
:1028000011240895CF93DF93BC018230910510F419
:1028100062E070E0A0919B01B0919C01ED01E0E0CD
:10282000F0E040E050E021C0888199818617970749
:1028300069F48A819B81309719F09383828304C065
:1028400090939C0180939B01FE0134C06817790727
:1028500038F44115510519F08417950708F4AC01B7
:10286000FE018A819B819C01E9012097E9F64115CF
:102870005105A9F1CA01861B970B049708F4BA0108
:10288000E0E0F0E02AC08D919C91119784179507A4
:10289000F9F46417750781F412968D919C91139742
:1028A000309719F09383828304C090939C018093A6
:1028B0009B01FD0132964FC0CA01861B970BFD019B
:1028C000E80FF91F6193719302978D939C9343C016
:1028D000FD01828193819C01D9011097A1F680911D
:1028E000990190919A01892B41F480914001909136
:1028F000410190939A018093990140914201509136
:1029000043014115510541F44DB75EB780913E0139
:1029100090913F01481B590B2091990130919A01E8
:1029200024173507B0F4CA01821B930B861797074B
:1029300080F0AB014E5F5F4F8417950750F0420F58
:10294000531F50939A0140939901F9016193719338
:1029500002C0E0E0F0E0CF01DF91CF910895CF9386
:10296000DF93009709F450C0EC0122971B821A8272
:10297000A0919B01B0919C01109709F140E050E0BB
:10298000AC17BD0708F1BB83AA83FE0121913191E9
:10299000E20FF31FAE17BF0779F48D919C91119749
:1029A000280F391F2E5F3F4F3983288312968D9150
:1029B0009C9113979B838A834115510571F4D093A1
:1029C0009C01C0939B0120C012968D919C911397FE
:1029D000AD01009711F0DC01D3CFFA01D383C2839C
:1029E00021913191E20FF31FCE17DF0769F488813F
:1029F0009981280F391F2E5F3F4FFA0131832083C1
:102A00008A819B8193838283DF91CF910895FB011B
:102A1000DC0104C08D910190801921F44150504097
:102A2000C8F7881B990B0895FB01DC0102C00190D7
:102A30000D9241505040D8F70895DC0101C06D93CC
:0C2A400041505040E0F70895F894FFCF9B
:102A4C000081080000016001080000000000000087
:102A5C00018308000001680105000000000000006F
:102A6C000287080000016D01080000000000000052
:102A7C00FFFFFFFFFFFFFF00000000000000200031
:042A8C009D010000A8
:00000001FF
