:10000000F8C0000027C1000025C1000023C1000086
:1000100021C100001FC100001DC100001BC1000064
:1000200019C1000017C100000C948C0E13C1000010
:1000300011C100000FC100000DC100000BC1000084
:1000400009C1000007C1000005C1000003C1000094
:1000500001C100000C94BA0BFDC00000FBC0000001
:10006000F9C00000F7C00000F5C00000F3C00000B8
:10007000F1C00000EFC00000EDC00000EBC00000C8
:10008000E9C00000E7C00000E5C00000E3C00000D8
:10009000E1C00000DFC00000DDC00000DBC00000E8
:1000A000D9C00000D7C00000D5C00000050109027A
:1000B000A1010901A1000509190129051500250162
:1000C00095057501810295017503810105010930CE
:1000D00009311581257F950275088106093815813A
:1000E000257F950175088106050C0A3802158125C2
:1000F0007F950175088106C0C005010906A10105AB
:100100000719E029E7150025017501950881029579
:1001100001750881010508190129059505750191E9
:1001200002950175039101150025FF0507190029A6
:10013000FF950675088100C00600FF0901A10109AD
:1001400002150025FF750895028102090315002597
:10015000FF750895129102C01201100100000008FD
:10016000EB034D20010001020001090254000301CC
:1001700000C032090400000103010100092111013E
:100180000001223F00070581030800050904010062
:100190000103010200092111010001224D000705A0
:1001A000830308000509040200010300000009217F
:1001B0001101000122200007058703080005040340
:1001C0000904100355006E006E0061006D006500AB
:1001D00064000000140342004200200044006F004D
:1001E0006E0067006C006500000078253032580A08
:1001F000000011241FBECFEFDAE0DEBFCDBF80E0EC
:1002000090E00E943214182F8093A0018A3C61F480
:100210001092A00180E090E060E00E943A141093F8
:10022000A001E0E0F8E3099511E0A0E0B1E0E4E925
:10023000F8E202C005900D92A833B107D9F711E09A
:10024000A8E3B1E001C01D92A03AB107E1F786D35F
:100250000C944814D5CEFF93EF93E0918901F0916F
:100260008A01309709F00995EF91FF910895FC01FB
:100270008591803011F0EFDFFBCF0895FF27E0E29A
:1002800030E247FF0CC0419597FF09C0EDE2609551
:10029000709580959095611D711D811D911D27FFA1
:1002A00002C0219530E350E2AA27660F771F881F0E
:1002B000991FAA1FA41710F0A41B63955A95A9F7BC
:1002C000AA3008F0A95FA05DAF93F39561157105A1
:1002D0008105910541F7ED3211F4EF93F395F21793
:1002E00018F43F93F395FBCF8F91B5DFFA95E1F7C3
:1002F0000895E991F9918591803021F0853219F0C6
:10030000AADFF9CF089520E0E89455915532C1F362
:10031000503311F4689455915A3348F4505390F384
:10032000220F022E220F220F200D250FF4CF0EF4E4
:10033000219589919991533619F3533729F1533502
:1003400059F1BC0188279927E8945C3621F48991FA
:10035000999168945591543639F446EF7EF077FFC1
:100360000DC08FEF9FEF0AC055374AE039F058357E
:1003700040E121F0523642E009F00895FF93EF93F7
:100380007DDFEF91FF91B7CFFF93EF93FC01819158
:100390008030B9F360DFFBCFFF93EF9368DFF1CFDD
:1003A000DF93CF93CDB7DEB72596A3DFCF91DF9153
:1003B000089525B1982F9170922B95B92BB1982F54
:1003C0009072922B9BB998B18078982B98B9089528
:1003D00025B1982F91709095922395B92BB1982FB4
:1003E0009072909592239BB998B1807880959823CC
:1003F00098B9089580914301089580934301089529
:1004000080914301817008958170909143019E7F96
:10041000892B80934301089580914301807C089546
:1004200080914301827008958091420108958093E4
:100430004201089581E090913D01891B80933D0127
:10044000089584E491E0089589E491E0089580910D
:1004500039010895809138010895809339010895F4
:10046000809338010895FC0180818F718083809191
:100470003801882371F580913E01882351F58181EF
:10048000813C14F481E805C0880F803414F08FE7B4
:1004900001C0880F81838281813C14F481E805C00A
:1004A000880F803414F09FE702C0982F990F928331
:1004B0008181809345019093460183818093470118
:1004C00084818093480180818093440181E08093FE
:1004D00038018081883071F0893028F4853051F0FE
:1004E000863091F409C0803139F0843151F08C307C
:1004F00059F404C081E001C080E086CF10923E0133
:10050000089581E080933E010895CF93DF93EC013D
:1005100077DF882371F480913A0190913B018C0F31
:100520009D1F90933B0180933A01883C910598F17F
:1005300020C080913C01882369F080913A0190911C
:100540003B018C0F9D1F90933B0180933A01C29712
:1005500010F10FC065DF8823A9F080913A019091D6
:100560003B018C0F9D1F90933B0180933A010A97AA
:1005700090F013B819B880E886B910923B01109238
:100580003A0109C080913D01882319F480E820DFF9
:1005900002C080E80EDFDF91CF910895089515BC69
:1005A000089580910E0190910F01009729F0019715
:1005B00090930F0180930E0180911E0190911F0175
:1005C000009729F0019790931F0180931E0180915D
:1005D0002E0190912F01009729F0019790932F0100
:1005E00080932E01089588E10FB6F89480936000FF
:1005F000109260000FBE0E94130EF89480E8E8DEAF
:1006000020E030E060E840E951E013B819B866B97D
:1006100080E293E0FA013197F1F70197D9F713B827
:1006200019B866B980EB94E0FA013197F1F70197B8
:10063000D9F72F5F3F4F2A30310539F780E8B9DE0F
:1006400088EB9BE020E931E0F9013197F1F7019760
:10065000D9F780E8BDDE88EE93E020E931E0F901CA
:100660003197F1F70197D9F78AEC8093A00180E0E8
:1006700090E06AEC0E943A142CE088E190E00FB61A
:10068000F894A895809360000FBE2093600040E826
:1006900020E931E013B819B846B98CE291E0F901CC
:1006A0003197F1F70197D9F7F5CF1F93CF93DF93E8
:1006B00041E08030940709F464C08052914009F011
:1006C00060C0E9011881112309F589818430A9F0FE
:1006D000853030F4823051F0833009F052C00AC0C6
:1006E000853091F0893009F04CC009C0C9010296EB
:1006F00088D447C08A8168D244C048D242C09ADEBA
:10070000CE0102962ED23DC06EDF3BC0113089F47F
:1007100087DE8823B1F189818058809345018A81E1
:100720008058809346018B81809344011093380157
:1007300028C0123049F4898160DE8A8178DE109207
:100740003801109239011DC01330D9F469DE8823B5
:10075000C1F0898180934B018A8180934C018B8108
:1007600080934D018C8180934E018D8180934F0148
:100770008E81809350018F818093490181E0809325
:100780003901DF91CF911F910895EF92FF920F935E
:100790001F93CF93DF93AC01780181E0403058077D
:1007A00069F0A1E040315A0709F43FC081E083B904
:1007B00019B816B840525140B1F557C0E901188236
:1007C000C9010296FC0186E0DF011D928A95E9F7D6
:1007D00080913901882311F113DE882351F01CDE4A
:1007E000829586958695837090914901982B988380
:1007F00001C0188280914B018A8380914C018B83C8
:1008000080914D018C8380914E018D8380914F01A9
:100810008E83809150018F831092390188E090E09F
:10082000F7019183808380E032C0F9011182128246
:100830001482138280913801882389F080914501C8
:1008400081838091460182838091470183838091D7
:10085000480184838091440180831092380185E0AF
:1008600090E0D7018D939C9311C0890113B880E269
:1008700089B916B8BFDDF8018083D6DDD80111969D
:100880008C9382E090E0F7019183808381E0DF9197
:10089000CF911F910F91FF90EF90089580E091E02C
:1008A0000E94C61180E191E00E94C61180E291E0B1
:1008B0000C94C61180E091E00E94A51180E191E0C6
:1008C0000E94A51180E291E00E94A511E2EEF0E005
:1008D0008081846080830895F8D38823A1F481EA1D
:1008E00077DDD9D4882311F480E806C0853011F46F
:1008F00080E202C0813009F45CCD833021F481E0D4
:1009000058DD80E256CD089584B7877F84BF88E1A3
:100910000FB6F89480936000109260000FBE80E0E4
:1009200090E020E80FB6F894209361008093610076
:100930000FBE6A98729A209A2898559A5D983F9AA5
:1009400047980E946F0ED5D683E392E090935201B0
:100950008093510181E591E0BCD6BECF1F93CF9328
:10096000DF93D2DF80EA9FE00197F1F78CB18095A9
:10097000847080933F0181EA2BDD8091A0018A3C45
:1009800011F520E030E0A0E860EA7FE040E951E0C6
:1009900013B819B8A6B9C90104C0FB013197F1F722
:1009A00001970097D1F713B819B8A6B988EE93E06C
:1009B000FA013197F1F70197D9F7225E3F4F81E0B5
:1009C0002C32380729F77894C9E4D1E011E09CB1C2
:1009D0009095947080913F01981798F48091390117
:1009E000882379F4809130018A838F5F809330016E
:1009F0001B821C821D821E821F821092490110934D
:100A0000390190933F013BD4809140019091410185
:100A100086D67BDD809140019091410180D67ED0C9
:100A2000FFDC882331F4809140019091410177D619
:100A3000A5D268D6909341018093400180E091E077
:100A40000E94D61080E191E00E94D61080E291E0F1
:100A50000E94D6100E94C110BACFDA019330C1F0C3
:100A6000943030F4913051F0923009F04FC00BC007
:100A7000913221F1923209F049C032C0E8E5F1E04B
:100A800022E130E047C0EAE6F1E024E530E042C090
:100A9000813051F0813020F0823009F037C008C039
:100AA000EEEBF1E0849107C0E2ECF1E0849103C049
:100AB000E4EDF1E08491282F30E02CC0613041F06A
:100AC000613018F0623011F508C0ECE7F1E002C0C7
:100AD000E5E9F1E029E030E01DC0EEEAF1E0FACF0F
:100AE000613051F0613018F0623081F40AC0E9EFF2
:100AF000F0E02FE330E00EC0ECEAF0E02DE430E06F
:100B000009C0E8E3F1E020E230E004C0E0E0F0E01A
:100B100020E030E0ED93FC93C901089520917E011F
:100B200030917F0147E0213D3407A0F0E8E7F1E094
:100B300001C0119281E0EE37F807D9F780ED97E018
:100B400090937F0180937E0185B185B95D9888B1CE
:100B500088B90895280F391F30937F0120937E01B3
:100B60000895AC0120E030E0F901E858FE4FDA01C9
:100B7000A20FB31F8C9180832F5F3F4F263031052A
:100B800099F710927F0110927E0108950F931F93A1
:100B9000E0917201F091730109C014890589CF01B8
:100BA0000E94BD13212F302FC901FC013097A9F7F6
:100BB00085B185B98BB18BB94798109273011092AA
:100BC00072011F910F910895682F40917201509109
:100BD0007301FA01A0E0B0E005C0DF0184899589C6
:100BE0009C01F9013097B1F080818617B1F70CC0F4
:100BF000909373018093720104C055969C938E93D9
:100C00005497CF010C94BD1384899589E417F50797
:100C1000A1F7EECF08951F93CF93DF93EC011E85CC
:100C200003DC182311F480E01AC09881903310F08F
:100C300081E015C0892F869586958695E82FF0E08E
:100C4000E858FE4F208130E0880F880F880F981BEE
:100C500002C0359527959A95E2F7822F8170DF9132
:100C6000CF911F9108956F927F928F929F92AF9232
:100C7000BF92CF92DF92EF92FF920F931F93DF9379
:100C8000CF9300D0CDB7DEB7609072017090730142
:100C9000DBDB7C01DCDB882351F4C7010296FC011D
:100CA00086E0DF011D928A95E9F7F7011082C9DB22
:100CB0006C01D0DB882341F4D60111961C92119768
:100CC00012961C9212971C9200E010E0AA24BB24FA
:100CD0001A82198291E0892E912C1DC1F30167853A
:100CE000462F50E0437050704130510509F4C7C0A1
:100CF000423051051CF4452B41F1FAC042305105F8
:100D000029F04330510509F0F3C01FC0C30183DF50
:100D1000813071F4F30180899189A289B3890097A8
:100D2000A105B10509F0EEC0878583608787EAC019
:100D3000D3011F968C911F978C7F1F968C93F30184
:100D4000108A118A128A138ADDC0F3018089918981
:100D5000A289B3890097A105B10509F0D3C080919C
:100D6000740190917501A0917601B091770100977F
:100D7000A105B10509F0C6C043DB882309F4C2C050
:100D8000C30149DF813009F0BDC0D3011A964D91EE
:100D90005D916D917C911D9741155105610571051E
:100DA00099F01F962C911F97822F90E0837090707E
:100DB000892B51F42C7F22601F962C93F301408BDA
:100DC000518B628B738B9EC045DB882309F09AC0E0
:100DD0003EDB882309F096C0D30111969C911197B0
:100DE000983EA8F4F70192831F968C9183FF03C06D
:100DF000808181608083D3011F968C9182FF04C023
:100E0000F70180818260808381E027DB12C0892F17
:100E1000805F853070F4892F90E0805F904094016E
:100E200002C0220F331F8A95E2F7D6012C9381E08E
:100E300017DBF30187858C7F8160878782819381AF
:100E4000A481B5818093740190937501A09376017C
:100E5000B0937701848995890115110529F4909340
:100E600073018093720105C0D80155969C938E93AF
:100E70005497F301158A148A5301380139C0D301FC
:100E800011969C911197983EB0F4F70182818917D1
:100E9000C9F16C7F1F966C931F9716968D919D914B
:100EA0000D90BC91A02DF301808B918BA28BB38B05
:100EB000F1E0FA8327C0D6012C9130E0892F90E031
:100EC000805F904002C0440F551F8A95E2F72417B7
:100ED0003507C1F06C7FF301678786819781A08514
:100EE000B185808B918BA28BB38BF1E0F9830AC023
:100EF0006114710439F4609072017090730100E024
:100F000010E009C08301D30154968C9154975596F3
:100F10009C919C0139016114710409F0DFCE80912C
:100F2000720190917301892B29F4B0927301A09200
:100F3000720103C0F801B58AA48A89DA882329F4EA
:100F4000FA81F13011F481E088DA84DA882329F417
:100F50002981213011F481E083DA0F900F90CF9135
:100F6000DF911F910F91FF90EF90DF90CF90BF9096
:100F7000AF909F908F907F906F900895E091720155
:100F8000F0917301AC0160E070E01AC08089918932
:100F9000A289B38984179507A607B70728F480E0CC
:100FA00090E0A0E0B0E004C0841B950BA60BB70B4B
:100FB000808B918BA28BB38B848995899C01F901DD
:100FC000309721F78091740190917501A09176017D
:100FD000B091770184179507A607B70728F480E03A
:100FE00090E0A0E0B0E004C0841B950BA60BB70B0B
:100FF0008093740190937501A0937601B09377016B
:1010000032CE0F931F93CF93DF93EC01E0917201E7
:10101000F091730100E010E005C08F01848995898B
:101020009C01F901309729F0908188819817A9F7E0
:1010300023C086E190E00E9410139C01FC01009700
:1010400031F485B185B98BB18BB9479A39C080919C
:10105000720190917301892B29F4309373012093CD
:10106000720105C0D80155963C932E935497D9012F
:1010700055961C921E925497888180838981818322
:101080008A819B81AC81BD8182839383A483B58354
:101090008E819F81A885B98586839783A087B18734
:1010A0008A859B85AC85BD8582879387A487B58714
:1010B0008E8586878F858787108A118A128A138A80
:1010C000DF91CF911F910F9108958091850108952F
:1010D0008BEE36D28A3FB9F525D28093800122D299
:1010E000809381011FD2382F20918101222351F456
:1010F000882359F48091800190E087709070892B4B
:1011000021F417C0203809F421E8209381013038F8
:1011100009F431E8809180018770809380013195D6
:1011200030938201109283011092840180E891E053
:10113000D5D21092810110928201109283011092F7
:1011400084011092800108951F938BEEF9D18A3F9C
:1011500039F5E8D1182FE6D180938101E3D180934E
:101160008201E0D1482F10928401812F90E09C01F0
:101170002074307053E0359527955A95E1F78078C3
:10118000907033E0959587953A95E1F7282B177085
:10119000212B2093800190918101992369F403C050
:1011A0001092850126C080918201882341F4442356
:1011B00031F4222321F413C0903809F491E890937C
:1011C000810180918201803809F481E881958093C2
:1011D000820141954093830180E891E07FD2109293
:1011E0008101109282011092830110928401109269
:1011F00080011F9108951F938BEEA2D18A3FA1F425
:1012000091D1182F8FD1809381018CD1809382014D
:1012100089D1282F1092840117701093800190912A
:101220008101992369F403C01092850126C0809141
:101230008201882341F4222331F4112321F413C0C5
:10124000903809F491E8909381018091820180386F
:1012500009F481E88195809382012195209383018F
:1012600080E891E03BD210928101109282011092AD
:10127000830110928401109280011F910895809142
:101280008501833029F0853021F0813019F420CF99
:10129000B2CF5ACF08951F9310928501EDD180E10E
:1012A00097E220E931E0F9013197F1F70197D9F799
:1012B0008FEF46D18A3F09F067C034D133D18823FC
:1012C00019F481E08093850188EE3AD18A3F09F0D4
:1012D0005BC083E035D18A3F09F056C086EE30D13D
:1012E0008A3F09F051C086EE2BD18A3F09F04CC0ED
:1012F00086EE26D18A3F09F047C089EE21D18A3F88
:1013000009F042C00FD10ED1182F0CD1133321F4A4
:10131000853511F485E020C083EF12D18A3F09F0B2
:1013200033C088EC0DD18A3F79F583EF09D18A3F2C
:1013300059F584E605D18A3F39F583EF01D18A3F1B
:1013400019F580E5FDD08A3FF9F482EFF9D08A3FA4
:10135000D9F4E8D0833011F48093850188EEF0D081
:101360008A3F91F483E0ECD08A3F71F486EEE8D0B6
:101370008A3F51F483EFE4D08A3F31F488ECE0D027
:101380008A3F11F480EFDCD0809185011F91089590
:101390001F93CF93DF93EC0115E004C0812F8A9552
:1013A000F1F721977CD1882311F02097B9F7CE016E
:1013B000DF91CF911F9108951F93CF93DF93EC019D
:1013C00015E004C0812F8A95F1F7219768D1882311
:1013D00011F42097B9F7CE01DF91CF911F910895B5
:1013E00058D16CC1DF92EF92FF920F931F93CF936E
:1013F000DF931092860150D161D184E690E0C8DF7E
:10140000892B51F05ED1882309F47FC085E08A954D
:10141000F1F757D182E04EC081E04CC083E04AC072
:1014200000E011E0C0E0D0E0DD24D39481E0E82EBC
:10143000F12C82E390E0ACDF892B11F484E03AC018
:1014400040D1882349F01D25C7010C2E02C0880F0A
:10145000991F0A94E2F7082B82E390E0ADDF892B15
:1014600011F485E027C02196C830D10511F782E339
:1014700090E08EDF892B11F486E01CC022D1811709
:1014800011F080E117C082E390E096DF892B11F420
:1014900087E010C082E390E07BDF892B51F011D10F
:1014A000882309F039C085E08A95F1F70AD189E0EF
:1014B00001C088E080938601209186012430D0F01D
:1014C00004C08AE0F7CF8CDF17C000D000D0EDB7A2
:1014D000FEB731968AEE91E0ADB7BEB712969C93F7
:1014E0008E931197228313820E94D0010F900F9048
:1014F0000F900F9075DF00E0802FDF91CF911F914B
:101500000F91FF90EF90DF90089582E390E054DF19
:10151000892B09F483CF84CF82E390E04DDF892BC0
:1015200081F2D1CF1F931AEF5DDF982F11501F3F2B
:1015300021F0809186018823B9F7892F1F910895A2
:10154000DF92EF92FF920F931F93CF93DF93F82ECA
:101550001092860145DF80E991E00197F1F7ABD069
:101560009BD080E197E214DF892B11F48AE075C0EB
:1015700011E0C0E0D0E090E5D92EEF2CFF2401E08F
:101580008D2D8A95F1F7C7010C2E02C09595879590
:101590000A94E2F780FF03C0102790D001C08BD0DF
:1015A00082E390E009DF892B11F482E056C082E3E8
:1015B00090E0EEDE892B11F483E04FC02196C83015
:1015C000D105F1F680E58A95F1F7112311F076D077
:1015D00001C071D082E390E0EFDE892B11F484E04A
:1015E0003CC082E390E0D4DE892B11F485E035C065
:1015F00080E58A95F1F762D0C2E3D0E015E004C03F
:10160000812F8A95F1F721975CD0882319F02097D4
:10161000B9F702C0CD2B11F486E01FC082E390E041
:10162000B7DE892B11F487E018C082E390E0C4DEB6
:10163000892B21F0C2E3D0E015E006C088E00DC0A0
:10164000812F8A95F1F721973CD0882319F42097B0
:10165000B9F702C0CD2B31F489E080938601C0DE5A
:1016600080E002C0BDDE5EDFDF91CF911F910F9160
:10167000FF90EF90DF9008950BD01CD088EA91E6A0
:1016800020E931E0F9013197F1F70197D9F7A8CEB8
:1016900008955998519A08955198599A08955198D2
:1016A000599A85E08A95F1F789B190E096958795EA
:1016B0008170089508955898509A08955098589AAE
:1016C00008955098589A85E08A95F1F789B181700C
:1016D000089590938801809387010895E091870190
:1016E000F0918801309721F00190F081E02D09956B
:1016F000089582E084BD93E095BD9AEF97BD8093F5
:101700006E0008958FB7F89420918B0130918C0171
:1017100040918D0150918E018FBFC9010895EF92C4
:10172000FF920F931F93BC018FB7F894E0908B0149
:10173000F0908C0100918D0110918E018FBFA80156
:10174000970140705070CB01A0E0B0E02817390736
:101750004A075B0720F09701261B370B05C09B014A
:10176000209530952E0D3F1DC9011F910F91FF90BF
:10177000EF9008951F920F920FB60F9211248F933E
:101780009F93AF93BF9380918B0190918C01A09117
:101790008D01B0918E010196A11DB11D80938B0129
:1017A00090938C01A0938D01B0938E01BF91AF9166
:1017B0009F918F910F900FBE0F901F9018959C01D5
:1017C00040919A0150919B014617570718F4F9016F
:1017D00090E043C06115710511F0AB01F8CF809125
:1017E000E8008E778093E80040E050E0F0CF8091F1
:1017F0009301882309F447C0853009F446C08091DD
:10180000E80083FD44C08091E80082FD36C08091ED
:10181000E80080FF22C08091F3009091F200782FC1
:1018200060E0292F30E0262B372B07C08191809371
:10183000F100415050402F5F3F4F4115510519F0C5
:101840002830310598F390E02830310509F491E013
:101850008091E8008E778093E8004115510539F6B4
:10186000992329F60AC080919301882361F085307D
:1018700061F08091E80083FD0AC08091E80082FF5A
:10188000F2CF80E0089582E0089583E0089581E03A
:1018900008959C016115710529F48091E8008B770A
:1018A0008093E800F90127C080919301882399F182
:1018B000853099F18091E80083FF02C081E00895AE
:1018C0008091E80082FFF0CF06C08091F100819303
:1018D0006150704059F02091F3008091F200322F56
:1018E00020E090E0822B932B892B79F78091E80000
:1018F0008B778093E80061157105B1F606C0809181
:101900009301882341F0853041F08091E80080FF09
:10191000F6CF80E0089582E0089583E008959C0169
:1019200040919A0150919B014617570718F4F9010D
:1019300090E044C06115710511F0AB01F8CF8091C2
:10194000E8008E778093E80040E050E0F0CF80918F
:101950009301882309F448C0853009F447C0809179
:10196000E80083FD45C08091E80082FD37C080918A
:10197000E80080FF23C08091F3009091F200782F5F
:1019800060E0292F30E0262B372B08C0849180930C
:10199000F1003196415050402F5F3F4F41155105A6
:1019A00019F02830310590F390E02830310509F422
:1019B00091E08091E8008E778093E8004115510511
:1019C00031F6992321F60AC080919301882361F0B2
:1019D000853061F08091E80083FD0AC08091E800C5
:1019E00082FFF2CF80E0089582E0089583E00895B9
:1019F00081E00895BF92CF92DF92EF92FF920F9312
:101A00001F93CF93DF93182F092F7B016A01D9D041
:101A1000B82E8823B1F5812F902F9C01E901C114C4
:101A2000D10439F0F60180819181E81AF90AC80FD2
:101A3000D91F00E010E022C08091E80085FD16C0AB
:101A40008091E8008E778093E8009BD3C114D10485
:101A500049F0F60180819181800F911F91838083ED
:101A600085E010C0AED0882349F00CC089918093E6
:101A7000F1000894E108F1080F5F1F4FE114F10431
:101A8000D9F68B2DDF91CF911F910F91FF90EF90A1
:101A9000DF90CF90BF900895382F282F2EC0822F2F
:101AA0008F708093E900231721F4762F942F50E054
:101AB00006C07091EC009091ED005091F00091FF04
:101AC0001BC08091EB008E7F8093EB008091ED0036
:101AD0008D7F8093ED008091EB0081608093EB001F
:101AE0007093EC009093ED005093F0008091EE0025
:101AF00087FD02C080E008952F5F273080F23F709D
:101B00003093E90081E008950F931F93CF93DF9303
:101B1000062FEC0110E02AC09881992329F16B81EE
:101B2000E981FA812C81892F8F70873018F5223056
:101B300010F452E001C056E040E028E030E003C07D
:101B40004F5F220F331F2E173F07D0F36295660FAA
:101B5000660F607C991F9927991F692B4295407FDA
:101B6000452B9ADF882331F01F5F25961017A0F2CE
:101B700081E001C080E0DF91CF911F910F91089526
:101B80008091940188239CF404C080919301882360
:101B9000B9F08091E80082FFF8CF8091E8008B7760
:101BA0008093E800089580919301882349F0809103
:101BB000E80080FFF8CF8091E8008E778093E800FE
:101BC00008954091E4005091E50024E68091EC00F6
:101BD00080FF24C08091E80080FD1EC080919301A9
:101BE000882311F482E00895853011F483E008958C
:101BF0008091EB0085FF02C081E008958091E400B0
:101C00009091E5008417950709F3222311F484E0ED
:101C100008952150AC01DACF80E008958091E8006A
:101C200082FFDCCFF9CF6BD072D0E0EEF0E08081A4
:101C300081608083A8EDB0E08C918F778C9319BC84
:101C4000E7EDF0E080818E7F80838C918F7E8C9396
:101C5000109292010895EF92FF920F931F934FD02D
:101C600056D008ED10E0F80180818F778083808165
:101C70008068808380818F7D808319BC109293015E
:101C800010928F01109291011092900180EEE82E37
:101C9000F12CF70180818B7F8083F8018081816046
:101CA000808380E060E042E0F7DEE1EEF0E08081FA
:101CB0008E7F8083E2EEF0E080818160808380818E
:101CC00088608083F70180818E7F8083F801808126
:101CD000806180831F910F91FF90EF900895E8ED50
:101CE000F0E080818F7E8083E7EDF0E0808181608D
:101CF000808384E082BF81E080939201ACCFE8EDE5
:101D0000F0E080818E7F80831092E200089510922F
:101D1000DA001092E10008951F920F920FB60F9211
:101D200011242F933F934F935F936F937F938F93E0
:101D30009F93AF93BF93EF93FF938091E10082FF56
:101D40000BC08091E20082FF07C08091E1008B7F91
:101D50008093E1000E94D1028091DA0080FF1FC0D1
:101D60008091D80080FF1BC08091DA008E7F809325
:101D7000DA008091D90080FF0DC080E189BD82E149
:101D800089BD09B400FEFDCF81E0809393010E94DC
:101D9000CE0205C019BC109293010E94CF0280911F
:101DA000E10080FF18C08091E20080FF14C08091A4
:101DB000E2008E7F8093E2008091E2008061809358
:101DC000E2008091D80080628093D80019BC85E041
:101DD00080939301D5D18091E10084FF2FC0809141
:101DE000E20084FF2BC080E189BD82E189BD09B496
:101DF00000FEFDCF8091D8008F7D8093D800809128
:101E0000E1008F7E8093E1008091E2008F7E8093DD
:101E1000E2008091E20081608093E20080918F0176
:101E2000882311F084E007C08091E30087FD02C0A1
:101E300081E001C083E080939301A2D18091E10011
:101E400083FF22C08091E20083FF1EC08091E100E9
:101E5000877F8093E10082E08093930110928F014D
:101E60008091E1008E7F8093E1008091E2008E7F7F
:101E70008093E2008091E20080618093E20080E044
:101E800060E042E009DE7CD1FF91EF91BF91AF911C
:101E90009F918F917F916F915F914F913F912F9182
:101EA0000F900FBE0F901F9018951F93DF93CF9345
:101EB000CDB7DEB7AC970FB6F894DEBF0FBECDBF7F
:101EC000E4E9F1E08091F100819321E0EC39F2073F
:101ED000C9F70E944E048091E80083FF39C18091C8
:101EE000940130919501353009F487C0363040F4C3
:101EF0003130C9F1313070F0333009F029C133C0CD
:101F0000383009F4F6C0393009F405C1363009F02B
:101F10001FC196C0803821F0823809F019C108C06D
:101F20009091900180919101882399F0926011C065
:101F3000809198018F708093E9008091EB0090E090
:101F400025E0969587952A95E1F7982F9170109244
:101F5000E9008091E800877F8093E8009093F1008A
:101F60001092F100D1C0882319F0823009F0F0C03E
:101F700090E08F719070009721F0029709F0E8C00F
:101F80000CC080919601813009F0E2C0109291015D
:101F9000333069F5809391012AC08091960188239E
:101FA00031F5209198012F7009F4D2C02093E900F7
:101FB0008091EB0080FF1BC0333021F48091EB0057
:101FC000806213C08091EB0080618093EB0081E020
:101FD00090E002C0880F991F2A95E2F78093EA00EB
:101FE0001092EA008091EB0088608093EB001092E1
:101FF000E9008091E800877F8AC0882309F0A8C0A3
:10200000109196011F778091E3008078812B809357
:10201000E3008091E800877F8093E800B1DD809144
:10202000E80080FFFCCF8091E30080688093E300AC
:10203000112311F482E001C083E08093930188C0F2
:102040008058823008F084C0809196019091970169
:1020500023E08C3D920709F033C083E08C838AE251
:102060008B837FB7F894DE0115966EE040E050E078
:1020700011E2E62FF0E010935700849140FF03C077
:1020800082958F706F5F8F70282F30E08A3018F044
:10209000C901C79602C0C901C0968D939D934F5F39
:1020A0005F4F4431510529F77FBF8091E800877F5A
:1020B0008093E800CE0103966AE270E080DB13C0F3
:1020C00060919801AE014F5F5F4F0E942D05BC01EA
:1020D000009709F43DC08091E800877F8093E80075
:1020E00089819A811CDC8091E8008B778093E800DD
:1020F0002FC0803869F58091E800877F8093E800E1
:1021000080918F018093F1008091E8008E77809319
:10211000E80036DD1DC08823D9F4909196019230F5
:10212000B8F48091E800877F8093E80090938F0156
:1021300027DD80918F01882331F48091E30087FDB2
:1021400002C081E001C084E0809393010E945A04A0
:102150008091E80083FF0AC08091E800877F809328
:10216000E8008091EB0080628093EB00AC960FB6A4
:10217000F894DEBF0FBECDBFCF91DF911F910895C0
:1021800008951F9380919301882371F01091E900C5
:102190008091EC001092E9008091E80083FF01C07B
:1021A00084DE1F701093E9001F9108954F925F9293
:1021B0006F927F928F929F92AF92BF92CF92DF9257
:1021C000EF92FF920F931F93DF93CF9300D00F9264
:1021D000CDB7DEB77C016DB67EB6809193018430B9
:1021E00009F09AC02091E4003091E500F701828562
:1021F00093858217930709F48FC081818F70809334
:10220000E9008091E80085FF87C05DB64EB6408545
:1022100050E08DB79EB7841B950B0FB6F8949EBF08
:102220000FBE8DBF0DB71EB70F5F1F4F19821B82E8
:102230001A82C02E912EC80160E070E050E00BD3EE
:10224000C701BE016F5F7F4F40E098018E010E5FB6
:102250001F4F0E94C503882EF70184859585892B21
:1022600019F4AA24BB240BC020E0F70186859785CA
:10227000892B09F021E081E02827A22EBB24F70159
:10228000068117810115110511F4DD2412C04A8160
:102290005B818C2D992DB801C8D2DD24009711F0F7
:1022A000DD24D394F7014085C8016C2D792D50E0D1
:1022B000C9D28A819B81892B01F1882021F4DD20FC
:1022C00011F4AB28D1F0F70184859585978786872F
:1022D00081818F708093E9008981882311F0809338
:1022E000F1006A817B818C2D992D40E050E082DBEA
:1022F0008091E8008E778093E8008091E4009091CF
:10230000E500F70193878287252D342DC9010FB68B
:10231000F8949EBF0FBE8DBF0FB6F8947EBE0FBE61
:102320006DBE0F900F900F90CF91DF911F910F9185
:10233000FF90EF90DF90CF90BF90AF909F908F90E5
:102340007F906F905F904F900895CF93DF93DC0163
:102350000996FC0187E0EF0119928A95E9F781E07F
:1023600019968C93199784EF91E01D969C938E9308
:102370001C9783E014968C931497CD01019661E02D
:10238000C3DB811181E0DF91CF9108956F927F923D
:102390008F929F92AF92BF92CF92DF92EF92FF9275
:1023A0000F931F93DF93CF9300D00F92CDB7DEB77B
:1023B0006C016DB67EB68091E80083FF1AC1F6010C
:1023C000808190E020919801309199012817390778
:1023D00009F00FC180919501833009F4B2C08430B7
:1023E00030F4813071F0823009F003C1E6C08A30E8
:1023F00009F4CBC08B3009F4B5C0893009F0F9C0BD
:102400005CC080919401813A09F0F3C09DB68EB60C
:102410001B821A8280919601109197018983F6019F
:10242000408550E08DB79EB7841B950B0FB6F8948E
:102430009EBF0FBE8DBFEDB6FEB60894E11CF11C29
:10244000BE2CAF2CC70160E070E050E004D2115008
:10245000C601BE016F5F7F4F412F97018E010E5F56
:102460001F4F0E94C503F6012681378121153105D2
:1024700029F04085C901B70150E0E4D11092E9008C
:102480008091E800877F8093E8008981882311F09C
:102490008093F1006A817B818B2D9A2D90D9809158
:1024A000E8008B778093E800292D382DC9010FB6FD
:1024B000F8949EBF0FBE8DBF9CC080919401813265
:1024C00009F097C09DB68EB600919A0110919B01BC
:1024D000A0909601B09097018DB79EB7801B910B8D
:1024E0000FB6F8949EBF0FBE8DBFEDB6FEB6089432
:1024F000E11CF11C8091E800877F8093E800C70110
:10250000B801C7D98091E8008E778093E80080E019
:1025100090E0AA2011F081E090E0BA94E80EF91E54
:10252000081B190BC6016A2D4B2D97010E945503FC
:10253000892D982D9C010FB6F8943EBF0FBE2DBF7C
:1025400058C080919401813A09F053C08091E8000D
:10255000877F8093E8008091E80080FFFCCFF60140
:1025600081853FC080919401813209F042C0809101
:10257000E800877F8093E80003DB90E0809196017C
:10258000811191E0F601918734C0809194018132EC
:1025900081F58091E800877F8093E800F1DA8091EF
:1025A000960190919701807036E0969587953A95BF
:1025B000E1F7F601958784871CC080919401813AE8
:1025C000C1F48091E800877F8093E8008091E80063
:1025D00080FFFCCFF6018485958596958795969525
:1025E00087958093F1008091E8008E778093E800D2
:1025F000C7DA0FB6F8947EBE0FBE6DBE0F900F9077
:102600000F90CF91DF911F910F91FF90EF90DF908E
:10261000CF90BF90AF909F908F907F906F900895D4
:10262000CF93DF93BC018230910510F462E070E03B
:10263000A0919E01B0919F01ED01E0E0F0E040E04B
:1026400050E021C0888199818617970769F48A81B3
:102650009B81309719F09383828304C090939F01EC
:1026600080939E01FE0134C06817790738F4411544
:10267000510519F08417950708F4AC01FE018A8111
:102680009B819C01E9012097E9F641155105A9F1CB
:10269000CA01861B970B049708F4BA01E0E0F0E04A
:1026A0002AC08D919C91119784179507F9F46417AE
:1026B000750781F412968D919C911397309719F0BC
:1026C0009383828304C090939F0180939E01FD01B8
:1026D00032964FC0CA01861B970BFD01E80FF91F08
:1026E0006193719302978D939C9343C0FD01828106
:1026F00093819C01D9011097A1F680919C01909142
:102700009D01892B41F48091330190913401909384
:102710009D0180939C0140913501509136014115F6
:10272000510541F44DB75EB780913101909132016E
:10273000481B590B20919C0130919D0124173507AE
:10274000B0F4CA01821B930B8617970780F0AB0188
:102750004E5F5F4F8417950750F0420F531F509301
:102760009D0140939C01F9016193719302C0E0E0E7
:10277000F0E0CF01DF91CF910895CF93DF930097E1
:1027800009F450C0EC0122971B821A82A0919E018D
:10279000B0919F01109709F140E050E0AC17BD07E0
:1027A00008F1BB83AA83FE0121913191E20FF31F4F
:1027B000AE17BF0779F48D919C911197280F391F9F
:1027C0002E5F3F4F3983288312968D919C911397EA
:1027D0009B838A834115510571F4D0939F01C09367
:1027E0009E0120C012968D919C911397AD01009788
:1027F00011F0DC01D3CFFA01D383C283219131914F
:10280000E20FF31FCE17DF0769F488819981280F43
:10281000391F2E5F3F4FFA01318320838A819B81CC
:1028200093838283DF91CF910895FB01DC0104C083
:102830008D910190801921F441505040C8F7881BB8
:10284000990B0895FB01DC0102C001900D924150EB
:102850005040D8F70895DC0101C06D9341505040BD
:10286000E0F70895F999FECF92BD81BDF89A9927B6
:1028700080B50895262FF999FECF1FBA92BD81BD6C
:1028800020BD0FB6F894FA9AF99A0FBE01960895F2
:04289000F894FFCFEA
:10289400008108000001530108000000000000004E
:1028A4000183080000015B01050000000000000036
:1028B400028708000001600112000000000000000F
:0828C400682000A101000000E2
:00000001FF
