:10000000F8C0000012C1000010C100000EC10000C5
:100010000CC100000AC1000008C1000006C10000B8
:1000200004C1000002C100000C94DC0EFEC0000000
:10003000FCC00000FAC00000F8C00000F6C00000DC
:10004000F4C00000F2C00000F0C00000EEC00000EC
:10005000ECC000000C94220CE8C00000E6C00000D8
:10006000E4C00000E2C00000E0C00000DEC000000C
:10007000DCC00000DAC00000D8C00000D6C000001C
:10008000D4C00000D2C00000D0C00000CEC000002C
:10009000CCC00000CAC00000C8C00000C6C000003C
:1000A000C4C00000C2C00000C0C0000005010902B9
:1000B000A1010901A1000509190129051500250162
:1000C00095057501810295017503810105010930CE
:1000D00009311581257F950275088106093815813A
:1000E000257F950175088106050C0A3802158125C2
:1000F0007F950175088106C0C005010906A10105AB
:100100000719E029E7150025017501950881029579
:1001100001750881010508190129059505750191E9
:1001200002950175039101150025FF0507190029A6
:10013000FF950675088100C00600FF0901A10109AD
:1001400002150025FF750895018102090315002598
:10015000FF750895089102C0120110010000000807
:10016000EB034D20010001020001090254000301CC
:1001700000C032090400000103010100092111013E
:100180000001223F00070581030800050904010062
:100190000103010200092111010001224D000705A0
:1001A000830308000509040200010300000009217F
:1001B0001101000122200007058703080005040340
:1001C0000904100355006E006E0061006D006500AB
:1001D00064000000140342004200200044006F004D
:1001E0006E0067006C006500000078253032580A08
:1001F000000011241FBECFEFDAE0DEBFCDBF11E05B
:10020000A0E0B1E0E6E4F9E202C005900D92AE3361
:10021000B107D9F711E0AEE3B1E001C01D92A639F4
:10022000B107E1F743D30C94A114EACEFF93EF9307
:10023000E0917F01F0918001309709F00995EF91ED
:10024000FF910895FC018591803011F0EFDFFBCF25
:100250000895FF27E0E230E247FF0CC0419597FF89
:1002600009C0EDE26095709580959095611D711DB6
:10027000811D911D27FF02C0219530E350E2AA277E
:10028000660F771F881F991FAA1FA41710F0A41BC1
:1002900063955A95A9F7AA3008F0A95FA05DAF93BE
:1002A000F395611571058105910541F7ED3211F462
:1002B000EF93F395F21718F43F93F395FBCF8F91DB
:1002C000B5DFFA95E1F70895E991F99185918030CC
:1002D00021F0853219F0AADFF9CF089520E0E894E3
:1002E00055915532C1F3503311F4689455915A33F6
:1002F00048F4505390F3220F022E220F220F200DAC
:10030000250FF4CF0EF4219589919991533619F365
:10031000533729F1533559F1BC0188279927E894BF
:100320005C3621F48991999168945591543639F449
:1003300046EF7EF077FF0DC08FEF9FEF0AC0553775
:100340004AE039F0583540E121F0523642E009F0F8
:100350000895FF93EF937DDFEF91FF91B7CFFF9368
:10036000EF93FC0181918030B9F360DFFBCFFF9305
:10037000EF9368DFF1CFDF93CF93CDB7DEB725964C
:10038000A3DFCF91DF91089525B1982F9170922B23
:1003900095B92BB1982F9072922B9BB998B1807818
:1003A000982B98B9089580913F01817008958170CC
:1003B00090913F019C73892B80933F010895809118
:1003C0003F018C73089580913F0182700895282F1A
:1003D000332727FD309540913F0160FF0BC02E5F12
:1003E0003F4F81E090E002C0880F991F2A95E2F705
:1003F000482B0BC02E5F3F4F81E090E002C0880F7A
:10040000991F2A95E2F78095482340933F0108956C
:100410008AE491E008958FE491E00895809140018D
:10042000089580913E01089580934001089580933E
:100430003E010895FC0180818F71808380913E018F
:10044000882371F580914401882351F58181813C95
:1004500014F481E805C0880F803414F08FE701C0E0
:10046000880F81838281813C14F481E805C0880F64
:10047000803414F09FE702C0982F990F92838181F6
:1004800080934B0190934C01838180934D01848133
:1004900080934E01808180934A0181E080933E01E8
:1004A0008081883071F0893028F4853069F0863099
:1004B000C1F40FC0803151F0843181F08C3089F467
:1004C0000AC080E061E004C081E004C080E060E038
:1004D0007ECF80E06CCF10924401089581E080933C
:1004E00044010895CF93DF93EC015DDF882371F41D
:1004F00080914101909142018C0F9D1F9093420188
:1005000080934101885E934060F120C08091430157
:10051000882369F080914101909142018C0F9D1FC9
:100520009093420180934101C297D8F00FC04BDFF6
:100530008823A9F080914101909142018C0F9D1F69
:1005400090934201809341010A9758F013B819B86B
:1005500080E886B9109242011092410102C080E801
:1005600013DFDF91CF910895089515BC0895809110
:100570000E0190910F01009729F0019790930F01C0
:1005800080930E0180911E0190911F01009729F028
:10059000019790931F0180931E0180912E019091ED
:1005A0002F01009729F0019790932F0180932E013E
:1005B0000895EF920F93CF93DF9341E0803094073B
:1005C00009F48FC08052914009F08BC0E901088185
:1005D000002309F04CC089818430F1F0853030F47B
:1005E000823061F0833009F07CC013C0873011F194
:1005F0008830E1F0863009F074C010C05D8140E0C1
:100600008C81480F511D8A816B812E810F8118D5F5
:1006100068C08A81A1D265C07BD263C08A816B81A8
:100620004C812D810E81EF802CD25BC08A816B8141
:100630003BD257C06B814C81663041F44F3019F486
:100640008D8181FF0DC08A8166E00EC08D814536A7
:1006500028F4853640F4481730F002C0853618F08B
:100660008A81A6D23EC08A812D81DDD43AC0013074
:1006700089F4A9DE8823A9F18981805880934B01F0
:100680008A81805880934C018B8180934A0100932A
:100690003E0127C0023041F4898180933F011092CE
:1006A0003E01109240011DC00330D9F48CDE882336
:1006B000C1F08981809351018A81809352018B819D
:1006C000809353018C81809354018D8180935501D7
:1006D0008E81809356018F8180934F0181E08093BA
:1006E0004001DF91CF910F91EF9008950F931F93E9
:1006F000CF93DF93AC01E90181E04030580769F006
:10070000A1E040315A0709F43FC081E083B919B82C
:1007100016B840525140B1F556C01882C901029630
:10072000FC0186E0DF011D928A95E9F78091400186
:10073000882319F138DE882359F080913F01829592
:1007400086958695837090914F01892B888301C08F
:100750001882809151018A83809152018B8380910C
:1007600053018C83809154018D83809155018E8338
:10077000809156018F831092400188E090E0F8014B
:100780009183808380E02CC019821A821C821B8294
:1007900080913E01882389F080914B01898380916B
:1007A0004C018A8380914D018B8380914E018C8313
:1007B00080914A01888310923E0185E090E0D80143
:1007C0008D939C930CC013B880E289B916B88091C0
:1007D0003F01888381E090E0F8019183808381E08C
:1007E000DF91CF911F910F91089580E091E00E94D9
:1007F000161280E191E00E94161280E291E00C94C2
:10080000161280E091E00E94F51180E191E00E94D3
:10081000F51180E291E00E94F511E2EEF0E08081B6
:10082000846080830895B9D48823A9F428985D98BA
:10083000479899D5882311F480E806C0853011F4D3
:1008400080E202C0813009F49FCD833021F481E041
:100850009BDD80E299CD089584B7877F84BF88E1CE
:100860000FB6F89480936000109260000FBE80E095
:1008700090E020E80FB6F894209361008093610027
:100880000FBE6A98729A209A2898559A5D983F9A56
:1008900047980E94BF0E95D78AE192E09093580145
:1008A0008093570187E591E07CD7BDCF0F931F93CD
:1008B000D3DF80EA9FE00197F1F78CB180958470D7
:1008C0008093450128985D98479880E260E04AE06F
:1008D00050E020E000E0B4D3789411E00CB1009532
:1008E000047080914501081728F45DDD212F281B35
:1008F000822F5DDD009345012AD5809148019091BA
:10090000490175D7EFDD80914801909149016FD77A
:100910008BD059DD882331F48091480190914901B1
:1009200066D7EDD357D790934901809348018091C2
:100930004601909147015BD78958934128F04AD7E7
:10094000909347018093460180E091E00E94261138
:1009500080E191E00E94261180E291E00E94261140
:100960000E941111BBCFDA019330C1F0943030F402
:10097000913051F0923009F04FC00BC0913221F10B
:10098000923209F049C032C0E8E5F1E022E130E0FE
:1009900047C0EAE6F1E024E530E042C0813051F0A2
:1009A000813020F0823009F037C008C0EEEBF1E072
:1009B000849107C0E2ECF1E0849103C0E4EDF1E042
:1009C0008491282F30E02CC0613041F0613018F064
:1009D000623011F508C0ECE7F1E002C0E5E9F1E0B2
:1009E00029E030E01DC0EEEAF1E0FACF613051F0CD
:1009F000613018F0623081F40AC0E9EFF0E02FE3D3
:100A000030E00EC0ECEAF0E02DE430E009C0E8E3AD
:100A1000F1E020E230E004C0E0E0F0E020E030E08F
:100A2000ED93FC93C90108952091740130917501F3
:100A300047E0213D3407F0F08FEF80933001809341
:100A4000310180933201809333018093340180938C
:100A5000350183E0809336011092370180ED97E0F5
:100A6000909375018093740185B185B95D9888B1C3
:100A700088B90895280F391F3093750120937401A8
:100A80000895EF92809330016093310140933201D9
:100A90002093330140933401E092350110927501A7
:100AA00010927401EF90089580933601609337019E
:100AB00010927501109274010895482FE0916E0113
:100AC000F0916F0107C08081841731F0848595858E
:100AD0009C01F9013097B9F7CF0108950F931F9347
:100AE000CF93DF93EC01EA85FB8509C01381048174
:100AF000CF010E942C14212F302FC901FC01309707
:100B0000A9F71B861A86DF91CF911F910F91089547
:100B10000F931F93CF93DF93C0916E01D0916F011C
:100B20000BC01C850D85CE01D9DFCE010E942C148F
:100B3000212F302FC901EC01209799F785B185B994
:100B40008BB18BB9479810926F0110926E01DF91B3
:100B5000CF911F910F910895CF93DF93682F40910C
:100B60006E0150916F01EA01E0E0F0E005C0FE0186
:100B70008C859D859C01E9012097B9F088818617B5
:100B8000B1F70DC090936F0180936E0102C09587FD
:100B90008487CE01A3DFCE010E942C1406C08C8571
:100BA0009D85C417D50799F7EDCFDF91CF910895B3
:100BB0001F93CF93DF93162F80DFEC01009711F185
:100BC0004A855B85FA01A0E0B0E005C0DF018381C2
:100BD00094819C01F9013097A9F080818117B1F7C8
:100BE0000BC09B878A8704C014969C938E9313979F
:100BF000CF010E942C1406C083819481E417F5076D
:100C000099F7EFCFDF91CF911F9108950F931F9325
:100C1000CF93DF93FC01C285D385058102950F70C8
:100C200010E0CDDB90E0969587959695879580238B
:100C30009123892B09F444C06091360141E050E0D2
:100C4000062E02C0440F551F0A94E2F78091370127
:100C5000A82FB0E031C0E881E63089F42A8189818B
:100C600090E084239523892B59F1822F90E021FF76
:100C70001FC081709070A817B907D1F021C0EE2372
:100C800019F46230A9F404C0E53011F4662381F44C
:100C9000F0E0E05DFE4FE081E53690F48981853635
:100CA00010F4E81768F08A81853610F48E1740F04A
:100CB0008B819C819C01E901209769F681E001C04C
:100CC00080E0DF91CF911F910F9108954F925F9235
:100CD0006F927F928F929F92BF92CF92DF92EF920C
:100CE000FF920F931F93CF93DF93EC0194DB7C0172
:100CF00000E010E066247724CC24DD24BB2441E00E
:100D0000442E512C34EF832E31E0932E1CC12D81C3
:100D1000822F90E0837090708130910509F4F2C0C9
:100D2000823091051CF4892B09F108C182309105AC
:100D300021F0039709F002C119C0CE0167DF8130AD
:100D400069F48E819F81A885B9850097A105B105B9
:100D500009F0F4C08D8183608D83F0C08D818C7F1C
:100D60008D831E821F8218861986E8C08E819F811E
:100D7000A885B9850097A105B10509F0DFC080916C
:100D8000700190917101A0917201B091730100976F
:100D9000A105B10509F0D2C006DB882309F4CEC055
:100DA000CE0134DF813009F0C9C03C813323E9F042
:100DB0002D81822F90E083709070892BB1F42C7F6D
:100DC00022602D83832F90E09C01289DC001299DE6
:100DD000900D389D900D1124AA2797FDA095BA2F4C
:100DE0008E839F83A887B987A9C08881883E08F031
:100DF00057C0BB2009F0A2C0F701828310828D8109
:100E000083FF02C081E080838D8182FF04C0F701EF
:100E10008081826080838D818C7F81608D838981D8
:100E200090E09C01289DC001299D900D389D900D5A
:100E30001124AA2797FDA095BA2F80937001909353
:100E40007101A0937201B093730181E0EDDA8C859A
:100E50009D850115110529F490936F0180936E0112
:100E600003C0F80195878487C114D10411F46E0181
:100E700003C0F301D587C4870115110519F0302F80
:100E8000212F04C030916E0120916F011D861C86B8
:100E90003E01832F922F9C01E901BB24B3944EC0E5
:100EA000805F853008F04AC0B3DAFC0111821282FB
:100EB000888190E0805F9040920102C0220F331F32
:100EC0008A95E2F7C9012081282B2F7120838D811B
:100ED0008C7F81608D83898190E0FC01E89DC00159
:100EE000E99D900DF89D900D1124AA2797FDA095DE
:100EF000BA2F8093700190937101A0937201B09307
:100F0000730117C02C7F2D836A817B8180E090E084
:100F100024E630E040E050E00E9460136E837F835F
:100F2000888799878881805F853030F471DAFC0189
:100F3000108281E07CDA02C081E076DA8E018C8555
:100F40009D859C01E901209709F0E1CE2B2D30E031
:100F5000E6E0F0E0E21BF30B2E5F3F4F2E0D3F1D4E
:100F6000C90160E070E0AF010E949A1480916E01A7
:100F700090916F01892B21F0F801D586C48604C0B9
:100F8000D0926F01C0926E01DF91CF911F910F91AE
:100F9000FF90EF90DF90CF90BF909F908F907F90C9
:100FA0006F905F904F900895FF920F931F93CF9390
:100FB000DF93F62E82DD8C01009719F4A0E0B0E0FB
:100FC0002BC0FC01A285B385C0E0D0E008C08C91A5
:100FD0008F1511F1ED018B819C819C01D901109736
:100FE000B1F785E090E00E947F13FC01DC010097DF
:100FF00031F485B185B98BB18BB9479A0DC0148294
:101000001382F082F80182859385892B19F4B387C6
:10101000A28702C0BC83AB83CD01DF91CF911F912A
:101020000F91FF9008950F931F93142F022FBCDF91
:10103000FC01009711F0118302831F910F91089515
:10104000CF92DF92EF92FF920F931F93CF93DF9394
:10105000182FD62E7A01C22EE0916E01F0916F0109
:10106000C0E0D0E005C0EF01848595859C01F901C1
:10107000309721F080818117B1F72BC08EE090E08E
:101080000E947F13FC01009731F485B185B98BB1C3
:101090008BB9479A2BC0000F000F05831682178269
:1010A00010861186D182F382E282C4821083138675
:1010B00012861586148680916E0190916F01892B9E
:1010C00029F4F0936F01E0936E0110C0FD87EC8767
:1010D0000DC0000F000F0583D182F382E282C4822B
:1010E0001682178210861186CF01F8DCDF91CF912E
:1010F0001F910F91FF90EF90DF90CF900895E091B6
:101100006E01F0916F01AC0160E070E01AC0868161
:101110009781A085B18584179507A607B70728F49E
:1011200080E090E0A0E0B0E004C0841B950BA60B2B
:10113000B70B86839783A087B187848595859C01AB
:10114000F901309721F78091700190917101A09180
:101150007201B091730184179507A607B70728F4A9
:1011600080E090E0A0E0B0E004C0841B950BA60BEB
:10117000B70B8093700190937101A0937201B093AB
:1011800073014FD9882341F449D9882329F48091E8
:101190006E0190916F019ACD089580917B01089521
:1011A0008BEE36D28A3FB9F525D28093760122D2D2
:1011B000809377011FD2382F20917701222351F499
:1011C000882359F48091760190E087709070892B84
:1011D00021F417C0203809F421E820937701303832
:1011E00009F431E88091760187708093760131951A
:1011F000309378011092790110927A0186E791E09C
:10120000D5D2109277011092780110927901109244
:101210007A011092760108951F938BEEF9D18A3FDF
:1012200039F5E8D1182FE6D180937701E3D1809387
:101230007801E0D1482F10927A01812F90E09C0133
:101240002074307053E0359527955A95E1F78078F2
:10125000907033E0959587953A95E1F7282B1770B4
:10126000212B2093760190917701992369F403C093
:1012700010927B0126C080917801882341F4442399
:1012800031F4222321F413C0903809F491E89093AB
:10129000770180917801803809F481E88195809305
:1012A000780141954093790186E791E07FD21092D1
:1012B0007701109278011092790110927A011092C0
:1012C00076011F9108951F938BEEA2D18A3FA1F45E
:1012D00091D1182F8FD1809377018CD18093780191
:1012E00089D1282F10927A0117701093760190916E
:1012F0007701992369F403C010927B0126C0809185
:101300007801882341F4222331F4112321F413C0FE
:10131000903809F491E890937701809178018038B2
:1013200009F481E8819580937801219520937901D2
:1013300086E791E03BD210927701109278011092EB
:10134000790110927A01109276011F91089580918F
:101350007B01833029F0853021F0813019F420CFD2
:10136000B2CF5ACF08951F9310927B01EDD180E147
:1013700097E220E931E0F9013197F1F70197D9F7C8
:101380008FEF46D18A3F09F067C034D133D188232B
:1013900019F481E080937B0188EE3AD18A3F09F00D
:1013A0005BC083E035D18A3F09F056C086EE30D16C
:1013B0008A3F09F051C086EE2BD18A3F09F04CC01C
:1013C00086EE26D18A3F09F047C089EE21D18A3FB7
:1013D00009F042C00FD10ED1182F0CD1133321F4D4
:1013E000853511F485E020C083EF12D18A3F09F0E2
:1013F00033C088EC0DD18A3F79F583EF09D18A3F5C
:1014000059F584E605D18A3F39F583EF01D18A3F4A
:1014100019F580E5FDD08A3FF9F482EFF9D08A3FD3
:10142000D9F4E8D0833011F480937B0188EEF0D0BA
:101430008A3F91F483E0ECD08A3F71F486EEE8D0E5
:101440008A3F51F483EFE4D08A3F31F488ECE0D056
:101450008A3F11F480EFDCD080917B011F910895C9
:101460001F93CF93DF93EC0115E004C0812F8A9581
:10147000F1F721977CD1882311F02097B9F7CE019D
:10148000DF91CF911F9108951F93CF93DF93EC01CC
:1014900015E004C0812F8A95F1F7219768D1882340
:1014A00011F42097B9F7CE01DF91CF911F910895E4
:1014B00058D16CC1DF92EF92FF920F931F93CF939D
:1014C000DF9310927C0150D161D184E690E0C8DFB7
:1014D000892B51F05ED1882309F47FC085E08A957D
:1014E000F1F757D182E04EC081E04CC083E04AC0A2
:1014F00000E011E0C0E0D0E0DD24D39481E0E82EEC
:10150000F12C82E390E0ACDF892B11F484E03AC047
:1015100040D1882349F01D25C7010C2E02C0880F39
:10152000991F0A94E2F7082B82E390E0ADDF892B44
:1015300011F485E027C02196C830D10511F782E368
:1015400090E08EDF892B11F486E01CC022D1811738
:1015500011F080E117C082E390E096DF892B11F44F
:1015600087E010C082E390E07BDF892B51F011D13E
:10157000882309F039C085E08A95F1F70AD189E01E
:1015800001C088E080937C0120917C012430D0F060
:1015900004C08AE0F7CF8CDF17C000D000D0EDB7D1
:1015A000FEB731968AEE91E0ADB7BEB712969C9326
:1015B0008E931197228313820E94BB010F900F908C
:1015C0000F900F9075DF00E0802FDF91CF911F917A
:1015D0000F91FF90EF90DF90089582E390E054DF49
:1015E000892B09F483CF84CF82E390E04DDF892BF0
:1015F00081F2D1CF1F931AEF5DDF982F11501F3F5B
:1016000021F080917C018823B9F7892F1F910895DB
:10161000DF92EF92FF920F931F93CF93DF93F82EF9
:1016200010927C0145DF80E991E00197F1F7ABD0A2
:101630009BD080E197E214DF892B11F48AE075C01A
:1016400011E0C0E0D0E090E5D92EEF2CFF2401E0BE
:101650008D2D8A95F1F7C7010C2E02C095958795BF
:101660000A94E2F780FF03C0102790D001C08BD00E
:1016700082E390E009DF892B11F482E056C082E317
:1016800090E0EEDE892B11F483E04FC02196C83044
:10169000D105F1F680E58A95F1F7112311F076D0A6
:1016A00001C071D082E390E0EFDE892B11F484E079
:1016B0003CC082E390E0D4DE892B11F485E035C094
:1016C00080E58A95F1F762D0C2E3D0E015E004C06E
:1016D000812F8A95F1F721975CD0882319F0209704
:1016E000B9F702C0CD2B11F486E01FC082E390E071
:1016F000B7DE892B11F487E018C082E390E0C4DEE6
:10170000892B21F0C2E3D0E015E006C088E00DC0CF
:10171000812F8A95F1F721973CD0882319F42097DF
:10172000B9F702C0CD2B31F489E080937C01C0DE93
:1017300080E002C0BDDE5EDFDF91CF911F910F918F
:10174000FF90EF90DF9008950BD01CD088EA91E6CF
:1017500020E931E0F9013197F1F70197D9F7A8CEE7
:1017600008955998519A08955198599A0895519801
:10177000599A85E08A95F1F789B190E09695879519
:101780008170089508955898509A08955098589ADD
:1017900008955098589A85E08A95F1F789B181703B
:1017A000089590937E0180937D010895E0917D01DD
:1017B000F0917E01309721F00190F081E02D0995A4
:1017C000089582E084BD93E095BD9AEF97BD809324
:1017D0006E0008958FB7F8942091810130918201B5
:1017E00040918301509184018FBFC9010895EF9208
:1017F000FF920F931F93BC018FB7F894E090810183
:10180000F090820100918301109184018FBFA801A3
:10181000970140705070CB01A0E0B0E02817390765
:101820004A075B0720F09701261B370B05C09B0179
:10183000209530952E0D3F1DC9011F910F91FF90EE
:10184000EF9008951F920F920FB60F9211248F936D
:101850009F93AF93BF938091810190918201A0915A
:101860008301B09184010196A11DB11D8093810176
:1018700090938201A0938301B0938401BF91AF91B3
:101880009F918F910F900FBE0F901F9018959C0104
:1018900040919001509191014617570718F4F901B2
:1018A00090E043C06115710511F0AB01F8CF809154
:1018B000E8008E778093E80040E050E0F0CF809120
:1018C0008901882309F447C0853009F446C0809116
:1018D000E80083FD44C08091E80082FD36C080911D
:1018E000E80080FF22C08091F3009091F200782FF1
:1018F00060E0292F30E0262B372B07C081918093A1
:10190000F100415050402F5F3F4F4115510519F0F4
:101910002830310598F390E02830310509F491E042
:101920008091E8008E778093E8004115510539F6E3
:10193000992329F60AC080918901882361F08530B6
:1019400061F08091E80083FD0AC08091E80082FF89
:10195000F2CF80E0089582E0089583E0089581E069
:1019600008959C016115710529F48091E8008B7739
:101970008093E800F90127C080918901882399F1BB
:10198000853099F18091E80083FF02C081E00895DD
:101990008091E80082FFF0CF06C08091F100819332
:1019A0006150704059F02091F3008091F200322F85
:1019B00020E090E0822B932B892B79F78091E8002F
:1019C0008B778093E80061157105B1F606C08091B0
:1019D0008901882341F0853041F08091E80080FF43
:1019E000F6CF80E0089582E0089583E008959C0199
:1019F00040919001509191014617570718F4F90151
:101A000090E044C06115710511F0AB01F8CF8091F1
:101A1000E8008E778093E80040E050E0F0CF8091BE
:101A20008901882309F448C0853009F447C08091B2
:101A3000E80083FD45C08091E80082FD37C08091B9
:101A4000E80080FF23C08091F3009091F200782F8E
:101A500060E0292F30E0262B372B08C0849180933B
:101A6000F1003196415050402F5F3F4F41155105D5
:101A700019F02830310590F390E02830310509F451
:101A800091E08091E8008E778093E8004115510540
:101A900031F6992321F60AC080918901882361F0EB
:101AA000853061F08091E80083FD0AC08091E800F4
:101AB00082FFF2CF80E0089582E0089583E00895E8
:101AC00081E00895BF92CF92DF92EF92FF920F9341
:101AD0001F93CF93DF93182F092F7B016A01D9D071
:101AE000B82E8823B1F5812F902F9C01E901C114F4
:101AF000D10439F0F60180819181E81AF90AC80F02
:101B0000D91F00E010E022C08091E80085FD16C0DA
:101B10008091E8008E778093E80083D3C114D104CC
:101B200049F0F60180819181800F911F918380831C
:101B300085E010C0AED0882349F00CC08991809315
:101B4000F1000894E108F1080F5F1F4FE114F10460
:101B5000D9F68B2DDF91CF911F910F91FF90EF90D0
:101B6000DF90CF90BF900895382F282F2EC0822F5E
:101B70008F708093E900231721F4762F942F50E083
:101B800006C07091EC009091ED005091F00091FF33
:101B90001BC08091EB008E7F8093EB008091ED0065
:101BA0008D7F8093ED008091EB0081608093EB004E
:101BB0007093EC009093ED005093F0008091EE0054
:101BC00087FD02C080E008952F5F273080F23F70CC
:101BD0003093E90081E008950F931F93CF93DF9333
:101BE000062FEC0110E02AC09881992329F16B811E
:101BF000E981FA812C81892F8F70873018F5223086
:101C000010F452E001C056E040E028E030E003C0AC
:101C10004F5F220F331F2E173F07D0F36295660FD9
:101C2000660F607C991F9927991F692B4295407F09
:101C3000452B9ADF882331F01F5F25961017A0F2FD
:101C400081E001C080E0DF91CF911F910F91089555
:101C500080918A0188239CF404C0809189018823A3
:101C6000B9F08091E80082FFF8CF8091E8008B778F
:101C70008093E800089580918901882349F080913C
:101C8000E80080FFF8CF8091E8008E778093E8002D
:101C900008954091E4005091E50024E68091EC0025
:101CA00080FF24C08091E80080FD1EC080918901E2
:101CB000882311F482E00895853011F483E00895BB
:101CC0008091EB0085FF02C081E008958091E400DF
:101CD0009091E5008417950709F3222311F484E01D
:101CE00008952150AC01DACF80E008958091E8009A
:101CF00082FFDCCFF9CFEF92FF920F931F934FD06B
:101D000056D008ED10E0F80180818F7780838081C4
:101D10008068808380818F7D808319BC10928901C7
:101D200010928501109287011092860180EEE82EB4
:101D3000F12CF70180818B7F8083F80180818160A5
:101D4000808380E060E042E00FDFE1EEF0E0808140
:101D50008E7F8083E2EEF0E08081816080838081ED
:101D600088608083F70180818E7F8083F801808185
:101D7000806180831F910F91FF90EF900895E8EDAF
:101D8000F0E080818F7E8083E7EDF0E080818160EC
:101D9000808384E082BF81E080938801ACCFE8ED4E
:101DA000F0E080818E7F80831092E200089510928F
:101DB000DA001092E10008951F920F920FB60F9271
:101DC00011242F933F934F935F936F937F938F9340
:101DD0009F93AF93BF93EF93FF938091E10082FFB6
:101DE0000BC08091E20082FF07C08091E1008B7FF1
:101DF0008093E1000E94B7028091DA0080FF1FC04B
:101E00008091D80080FF1BC08091DA008E7F809384
:101E1000DA008091D90080FF0DC080E189BD82E1A8
:101E200089BD09B400FEFDCF81E0809389010E9445
:101E3000B40205C019BC109289010E94B5028091BC
:101E4000E10080FF18C08091E20080FF14C0809103
:101E5000E2008E7F8093E2008091E20080618093B7
:101E6000E2008091D80080628093D80019BC85E0A0
:101E700080938901D5D18091E10084FF2FC08091AA
:101E8000E20084FF2BC080E189BD82E189BD09B4F5
:101E900000FEFDCF8091D8008F7D8093D800809187
:101EA000E1008F7E8093E1008091E2008F7E80933D
:101EB000E2008091E20081608093E20080918501E0
:101EC000882311F084E007C08091E30087FD02C001
:101ED00081E001C083E080938901A2D18091E1007B
:101EE00083FF22C08091E20083FF1EC08091E10049
:101EF000877F8093E10082E08093890110928501C1
:101F00008091E1008E7F8093E1008091E2008E7FDE
:101F10008093E2008091E20080618093E20080E0A3
:101F200060E042E021DE7CD1FF91EF91BF91AF9163
:101F30009F918F917F916F915F914F913F912F91E1
:101F40000F900FBE0F901F9018951F93DF93CF93A4
:101F5000CDB7DEB7AC970FB6F894DEBF0FBECDBFDE
:101F6000EAE8F1E08091F100819321E0E239F207A3
:101F7000C9F70E94F5038091E80083FF39C1809181
:101F80008A0130918B01353009F487C0363040F436
:101F90003130C9F1313070F0333009F029C133C02C
:101FA000383009F4F6C0393009F405C1363009F08B
:101FB0001FC196C0803821F0823809F019C108C0CD
:101FC0009091860180918701882399F0926011C0D9
:101FD00080918E018F708093E9008091EB0090E0FA
:101FE00025E0969587952A95E1F7982F91701092A4
:101FF000E9008091E800877F8093E8009093F100EA
:102000001092F100D1C0882319F0823009F0F0C09D
:1020100090E08F719070009721F0029709F0E8C06E
:102020000CC080918C01813009F0E2C010928701D0
:10203000333069F5809387012AC080918C01882311
:1020400031F520918E012F7009F4D2C02093E90060
:102050008091EB0080FF1BC0333021F48091EB00B6
:10206000806213C08091EB0080618093EB0081E07F
:1020700090E002C0880F991F2A95E2F78093EA004A
:102080001092EA008091EB0088608093EB00109240
:10209000E9008091E800877F8AC0882309F0A8C002
:1020A00010918C011F778091E3008078812B8093C1
:1020B000E3008091E800877F8093E800C9DD80918C
:1020C000E80080FFFCCF8091E30080688093E3000C
:1020D000112311F482E001C083E08093890188C05C
:1020E0008058823008F084C080918C0190918D01DD
:1020F00023E08C3D920709F033C083E08C838AE2B1
:102100008B837FB7F894DE0115966EE040E050E0D7
:1021100011E2E62FF0E010935700849140FF03C0D6
:1021200082958F706F5F8F70282F30E08A3018F0A3
:10213000C901C79602C0C901C0968D939D934F5F98
:102140005F4F4431510529F77FBF8091E800877FB9
:102150008093E800CE0103966AE270E098DB13C03A
:1021600060918E01AE014F5F5F4F0E94B304BC01CE
:10217000009709F43DC08091E800877F8093E800D4
:1021800089819A8134DC8091E8008B778093E80024
:102190002FC0803869F58091E800877F8093E80040
:1021A000809185018093F1008091E8008E77809383
:1021B000E8004EDD1DC08823D9F490918C01923047
:1021C000B8F48091E800877F8093E80090938501C0
:1021D0003FDD80918501882331F48091E30087FD04
:1021E00002C081E001C084E0809389010E94010463
:1021F0008091E80083FF0AC08091E800877F809388
:10220000E8008091EB0080628093EB00AC960FB603
:10221000F894DEBF0FBECDBFCF91DF911F9108951F
:1022200008951F9380918901882371F01091E9002E
:102230008091EC001092E9008091E80083FF01C0DA
:1022400084DE1F701093E9001F9108954F925F92F2
:102250006F927F928F929F92AF92BF92CF92DF92B6
:10226000EF92FF920F931F93DF93CF9300D00F92C3
:10227000CDB7DEB77C016DB67EB680918901843022
:1022800009F09AC02091E4003091E500F7018285C1
:1022900093858217930709F48FC081818F70809393
:1022A000E9008091E80085FF87C05DB64EB64085A5
:1022B00050E08DB79EB7841B950B0FB6F8949EBF68
:1022C0000FBE8DBF0DB71EB70F5F1F4F19821B8248
:1022D0001A82C02E912EC80160E070E050E02AD32F
:1022E000C701BE016F5F7F4F40E098018E010E5F16
:1022F0001F4F0E947603882EF70184859585892BD0
:1023000019F4AA24BB240BC020E0F7018685978529
:10231000892B09F021E081E02827A22EBB24F701B8
:10232000068117810115110511F4DD2412C04A81BF
:102330005B818C2D992DB801E7D2DD24009711F037
:10234000DD24D394F7014085C8016C2D792D50E030
:10235000E8D28A819B81892B01F1882021F4DD203C
:1023600011F4AB28D1F0F70184859585978786878E
:1023700081818F708093E9008981882311F0809397
:10238000F1006A817B818C2D992D40E050E09ADB31
:102390008091E8008E778093E8008091E40090912E
:1023A000E500F70193878287252D342DC9010FB6EB
:1023B000F8949EBF0FBE8DBF0FB6F8947EBE0FBEC1
:1023C0006DBE0F900F900F90CF91DF911F910F91E5
:1023D000FF90EF90DF90CF90BF90AF909F908F9045
:1023E0007F906F905F904F900895CF93DF93DC01C3
:1023F0000996FC0187E0EF0119928A95E9F781E0DF
:1024000019968C93199784EF91E01D969C938E9367
:102410001C9783E014968C931497CD01019661E08C
:10242000DBDB811181E0DF91CF9108956F927F9284
:102430008F929F92AF92BF92CF92DF92EF92FF92D4
:102440000F931F93DF93CF9300D00F92CDB7DEB7DA
:102450006C016DB67EB68091E80083FF1AC1F6016B
:10246000808190E020918E0130918F0128173907EB
:1024700009F00FC180918B01833009F4B2C0843020
:1024800030F4813071F0823009F003C1E6C08A3047
:1024900009F4CBC08B3009F4B5C0893009F0F9C01C
:1024A0005CC080918A01813A09F0F3C09DB68EB676
:1024B0001B821A8280918C0110918D018983F60113
:1024C000408550E08DB79EB7841B950B0FB6F894EE
:1024D0009EBF0FBE8DBFEDB6FEB60894E11CF11C89
:1024E000BE2CAF2CC70160E070E050E023D2115049
:1024F000C601BE016F5F7F4F412F97018E010E5FB6
:102500001F4F0E947603F601268137812115310580
:1025100029F04085C901B70150E003D21092E900CB
:102520008091E800877F8093E8008981882311F0FB
:102530008093F1006A817B818B2D9A2DA8D980919F
:10254000E8008B778093E800292D382DC9010FB65C
:10255000F8949EBF0FBE8DBF9CC080918A018132CE
:1025600009F097C09DB68EB600919001109191012F
:10257000A0908C01B0908D018DB79EB7801B910B00
:102580000FB6F8949EBF0FBE8DBFEDB6FEB6089491
:10259000E11CF11C8091E800877F8093E800C7016F
:1025A000B801DFD98091E8008E778093E80080E061
:1025B00090E0AA2011F081E090E0BA94E80EF91EB4
:1025C000081B190BC6016A2D4B2D97010E94D902D9
:1025D000892D982D9C010FB6F8943EBF0FBE2DBFDC
:1025E00058C080918A01813A09F053C08091E80077
:1025F000877F8093E8008091E80080FFFCCFF601A0
:1026000081853FC080918A01813209F042C080916A
:10261000E800877F8093E8001BDB90E080918C01CD
:10262000811191E0F601918734C080918A01813255
:1026300081F58091E800877F8093E80009DB809135
:102640008C0190918D01807036E0969587953A9532
:10265000E1F7F601958784871CC080918A01813A51
:10266000C1F48091E800877F8093E8008091E800C2
:1026700080FFFCCFF6018485958596958795969584
:1026800087958093F1008091E8008E778093E80031
:10269000DFDA0FB6F8947EBE0FBE6DBE0F900F90BE
:1026A0000F90CF91DF911F910F91FF90EF90DF90EE
:1026B000CF90BF90AF909F908F907F906F90089534
:1026C000629FD001739FF001829FE00DF11D649F16
:1026D000E00DF11D929FF00D839FF00D749FF00DA2
:1026E000659FF00D9927729FB00DE11DF91F639F43
:1026F000B00DE11DF91FBD01CF0111240895CF9345
:10270000DF93BC018230910510F462E070E0A0918B
:102710009401B0919501ED01E0E0F0E040E050E07F
:1027200021C0888199818617970769F48A819B81E6
:10273000309719F09383828304C09093950180931E
:102740009401FE0134C06817790738F4411551052A
:1027500019F08417950708F4AC01FE018A819B816A
:102760009C01E9012097E9F641155105A9F1CA013B
:10277000861B970B049708F4BA01E0E0F0E02AC04A
:102780008D919C91119784179507F9F4641775073B
:1027900081F412968D919C911397309719F0938341
:1027A000828304C09093950180939401FD01329639
:1027B0004FC0CA01861B970BFD01E80FF91F6193FB
:1027C000719302978D939C9343C0FD018281938105
:1027D0009C01D9011097A1F68091920190919301EB
:1027E000892B41F480913A0190913B0190939301A0
:1027F0008093920140913C0150913D01411551055A
:1028000041F44DB75EB78091380190913901481B72
:10281000590B209192013091930124173507B0F4A0
:10282000CA01821B930B8617970780F0AB014E5F9E
:102830005F4F8417950750F0420F531F5093930139
:1028400040939201F9016193719302C0E0E0F0E0DE
:10285000CF01DF91CF910895CF93DF93009709F4D3
:1028600050C0EC0122971B821A82A0919401B09172
:102870009501109709F140E050E0AC17BD0708F151
:10288000BB83AA83FE0121913191E20FF31FAE17A2
:10289000BF0779F48D919C911197280F391F2E5FF6
:1028A0003F4F3983288312968D919C9113979B8378
:1028B0008A834115510571F4D0939501C093940119
:1028C00020C012968D919C911397AD01009711F045
:1028D000DC01D3CFFA01D383C28321913191E20F7E
:1028E000F31FCE17DF0769F488819981280F391FFC
:1028F0002E5F3F4FFA01318320838A819B8193832E
:102900008283DF91CF910895FB01DC0104C08D919A
:102910000190801921F441505040C8F7881B990B51
:102920000895FB01DC0102C001900D92415050401E
:10293000D8F70895DC0101C06D9341505040E0F795
:062940000895F894FFCF9A
:102946000081080000015901080000000000000095
:10295600018308000001610105000000000000007D
:102966000287080000016601080000000000000060
:0E297600FFFFFFFFFFFFFFFF200096010000A4
:00000001FF
