:10000000F8C0000012C1000010C100000EC10000C5
:100010000CC100000AC1000008C1000006C10000B8
:1000200004C1000002C100000C94440EFEC0000098
:10003000FCC00000FAC00000F8C00000F6C00000DC
:10004000F4C00000F2C00000F0C00000EEC00000EC
:10005000ECC000000C948A0BE8C00000E6C0000071
:10006000E4C00000E2C00000E0C00000DEC000000C
:10007000DCC00000DAC00000D8C00000D6C000001C
:10008000D4C00000D2C00000D0C00000CEC000002C
:10009000CCC00000CAC00000C8C00000C6C000003C
:1000A000C4C00000C2C00000C0C0000005010902B9
:1000B000A1010901A1000509190129051500250162
:1000C00095057501810295017503810105010930CE
:1000D00009311581257F950275088106093815813A
:1000E000257F950175088106050C0A3802158125C2
:1000F0007F950175088106C0C005010906A10105AB
:100100000719E029E7150025017501950881029579
:1001100001750881010508190129059505750191E9
:1001200002950175039101150025FF0507190029A6
:10013000FF950675088100C00600FF0901A10109AD
:1001400002150025FF750895088102090315002591
:10015000FF750895089102C0120110010000000807
:10016000EB034D20010001020001090254000301CC
:1001700000C032090400000103010100092111013E
:100180000001223F00070581030800050904010062
:100190000103010200092111010001224D000705A0
:1001A000830308000509040200010300000009217F
:1001B0001101000122200007058703080005040340
:1001C0000904100355006E006E0061006D006500AB
:1001D00064000000140342004200200044006F004D
:1001E0006E0067006C006500000078253032580A08
:1001F000000011241FBECFEFDAE0DEBFCDBF11E05B
:10020000A0E0B1E0E4E7F8E202C005900D92AA3365
:10021000B107D9F711E0AAE3B1E001C01D92AF38F0
:10022000B107E1F749D40C943814EACEFF93EF9369
:10023000E0917801F0917901309709F00995EF91FB
:10024000FF910895FC018591803011F0EFDFFBCF25
:100250000895FF27E0E230E247FF0CC0419597FF89
:1002600009C0EDE26095709580959095611D711DB6
:10027000811D911D27FF02C0219530E350E2AA277E
:10028000660F771F881F991FAA1FA41710F0A41BC1
:1002900063955A95A9F7AA3008F0A95FA05DAF93BE
:1002A000F395611571058105910541F7ED3211F462
:1002B000EF93F395F21718F43F93F395FBCF8F91DB
:1002C000B5DFFA95E1F70895E991F99185918030CC
:1002D00021F0853219F0AADFF9CF089520E0E894E3
:1002E00055915532C1F3503311F4689455915A33F6
:1002F00048F4505390F3220F022E220F220F200DAC
:10030000250FF4CF0EF4219589919991533619F365
:10031000533729F1533559F1BC0188279927E894BF
:100320005C3621F48991999168945591543639F449
:1003300046EF7EF077FF0DC08FEF9FEF0AC0553775
:100340004AE039F0583540E121F0523642E009F0F8
:100350000895FF93EF937DDFEF91FF91B7CFFF9368
:10036000EF93FC0181918030B9F360DFFBCFFF9305
:10037000EF9368DFF1CFDF93CF93CDB7DEB725964C
:10038000A3DFCF91DF91089525B1982F9170922B23
:1003900095B92BB1982F9072922B9BB998B1807818
:1003A000982B98B9089525B1982F91709095922324
:1003B00095B92BB1982F9072909592239BB998B1D3
:1003C00080788095982398B90895482FE09140014E
:1003D000F091410107C08081841731F084859585B3
:1003E0009C01F9013097B9F7CF010895FC01A2856E
:1003F000B38541E01FC0EC91F0E0E05DFE4FE0818D
:10040000E53608F040E011968C911197853618F486
:10041000E81708F440E012968C911297853618F48C
:100420008E1708F440E013968C91139714969C91C4
:100430009C01D9011097F9F6842F0895FC01809151
:100440003D01882391F4818180934C0182818093C6
:100450004D01838180934E01848180934F0180817F
:1004600080934B0181E080933D0108959C01809130
:100470003E018823B1F48091460190914701820F9B
:10048000931F9093470180934601885E934058F0F4
:1004900013B880E289B916B810924701109246014C
:1004A000089580E271CF0895089515BC0895809154
:1004B0000E0190910F01009729F0019790930F0181
:1004C00080930E0180911E0190911F01009729F0E9
:1004D000019790931F0180931E0180912E019091AE
:1004E0002F01009729F0019790932F0180932E01FF
:1004F00008950F931F93CF93DF93D901A80121E0B3
:1005000080309207D9F51C92CD010296FC0186E05D
:10051000EF0119928A95E9F780913F01882341F113
:1005200080913E01813021F4809150018C9301C073
:100530001C928091520112968C93129780915301D4
:1005400013968C9313978091540114968C9314975F
:100550008091550115968C931597809156011696AA
:100560008C9316978091570117968C9310923F01A8
:1005700088E090E0FA01918380833FC0F1E0803110
:100580009F0781F511961C92119712961C92129753
:1005900014961C92149713961C92139780913D0108
:1005A0008823C9F080914C0111968C93119780910A
:1005B0004D0112968C93129780914E0113968C9355
:1005C000139780914F0114968C93149780914B014F
:1005D0008C9310923D0185E090E0EA019983888335
:1005E00081E00CC08052914041F480913E018C9397
:1005F00081E090E0E8019983888380E0DF91CF91EA
:100600001F910F9108952F923F924F925F926F9298
:100610007F928F929F92AF92BF92CF92DF92EF9292
:10062000FF920F931F93DF93CF9300D000D0CDB7ED
:10063000DEB79C838B8320903E0130904001409038
:10064000410180903F0150903D01C0904201D09007
:100650004301E0904401F090450100E010E01A826F
:100660001982AA24BB24992484EF682E81E0782E75
:10067000F7C0EB81FC818581813009F4CCC08130E9
:1006800018F1823021F0833009F0E2C01DC08B8167
:100690009C81ACDE813071F4EB81FC818681978195
:1006A000A085B1850097A105B10509F0D1C023E06F
:1006B0002583CEC0EB81FC811582EB81FC81168203
:1006C000178210861186C4C0EB81FC8186819781D8
:1006D000A085B1850097A105B10509F0B9C0C11485
:1006E000D104E104F10409F0B3C0222009F4B0C040
:1006F000CF017CDE813009F0ABC0EB81FC819481BD
:100700009923D1F085818823B9F422E02583892FAC
:1007100090E0FC01E69DC001E79D900DF69D900DD7
:100720001124AA2797FDA095BA2FEB81FC8186831F
:100730009783A087B1878CC0EB81FC8180818F3F3C
:1007400009F44CC0F5E0F91508F482C0E92DF0E099
:10075000E05BFE4F828321E0EB81FC812583818178
:1007600090E0FC01E69DC001E79D900DF69D900D87
:1007700011246C01EE24D7FCE094FE2C0115110528
:1007800029F4EB81FC813484458407C0EB81FC8132
:1007900084859585F80195878487A114B10419F49F
:1007A000AB80BC8006C02B813C81E981FA81358712
:1007B00024870115110519F0302F212F02C0332D88
:1007C000242D9394EB81FC8115861486FA83E983AA
:1007D000832F922F9C013C832B8333C010924C01BA
:1007E00010924D0180914B01816080934B0121E07B
:1007F000EB81FC812583818190E0FC01E69DC001B5
:10080000E79D900DF69D900D11246C01EE24D7FC10
:10081000E094FE2C1BC0EB81FC8115826281738108
:1008200080E090E024E630E040E050E00E94C81212
:10083000EB81FC81668377838087918780818F3FFE
:1008400019F08824839404C010924B0155245394CA
:100850000B811C81F801848595859C013C832B8349
:100860002B813C81232B09F004CF30924001409230
:10087000410180923F0150923D01C0924201D092CD
:100880004301E0924401F092450135E0391570F0E2
:10089000292D30E0E6E0F0E0E21BF30B2E5A3E4F4C
:1008A000C90160E070E0AF010E9402148091400134
:1008B00090914101892B21F0F801B586A48604C0EE
:1008C000B0924101A09240010F900F900F900F90B5
:1008D000CF91DF911F910F91FF90EF90DF90CF901C
:1008E000BF90AF909F908F907F906F905F904F9050
:1008F0003F902F9008950F931F93CF93DF93EC01B8
:1009000080913B0190913C0127E0813D920790F05E
:100910008FEF809330018093310180933201809377
:10092000330180ED97E090933C0180933B0180E29E
:100930003ADD06C08C0F9D1F90933C0180933B01D4
:100940001091400100914101812F902F9C01F901EC
:10095000AE0160E070E01AC086819781A085B18504
:1009600084179507A607B70728F480E090E0A0E079
:10097000B0E004C0841B950BA60BB70B868397834E
:10098000A087B187848595859C01F901309721F76F
:100990008091420190914301A0914401B0914501A1
:1009A00084179507A607B70728F480E090E0A0E039
:1009B000B0E004C0841B950BA60BB70B80934201DB
:1009C00090934301A0934401B093450180913D0170
:1009D000882389F480913F01882369F480913A014A
:1009E000882319F0813039F403C0812F902F02C081
:1009F00080E090E008DEDF91CF911F910F91089584
:100A000080E091E00E947E1180E191E00E947E11E1
:100A100080E291E00C947E1180E091E00E945D11F3
:100A200080E191E00E945D1180E291E00E945D1101
:100A3000E2EEF0E0808184608083089584B7877F50
:100A400084BF88E10FB6F894809360001092600034
:100A50000FBE80E090E020E80FB6F894209361008C
:100A6000809361000FBE6A98729A209A2898559ACE
:100A70005D983F9A47980E94270E0BD68EE192E030
:100A8000909359018093580188E591E0F2D581EA6D
:100A90008ADCE7D3882311F480E806C0853011F49E
:100AA00080E202C0813009F46FCC833021F481E010
:100AB0006BDC80E269CC08951F93C0DF1092500177
:100AC00080EA9FE00197F1F78CB180958470809364
:100AD000480181EA68DC789411E09CB190959470AB
:100AE00080914801981730F480913E01212F281BF6
:100AF00020933E01909348018091490190914A01D1
:100B0000DED5B4DC8091490190914A01D8D5F3DE5D
:100B1000C9D590934A018093490197D380E091E031
:100B20000E948E1080E191E00E948E1080E291E0A0
:100B30000E948E100E947910D0CFCF92DF92EF9258
:100B4000FF920F931F93DF93CF9300D000D00F92AB
:100B5000CDB7DEB70091400110914101FF2495E02F
:100B6000E92E6E010894C11CD11C1BC0F8018081C4
:100B7000898381818A8382818B8383818C83848131
:100B80008D83FE9CB00111246E5F7F4FC60145E04E
:100B900050E00E942114F80124853585C9018C019B
:100BA000F3940115110511F780E090E06F2D0E947C
:100BB0002A1481E090E0609150010E942A140F9065
:100BC0000F900F900F900F90CF91DF911F910F9189
:100BD000FF90EF90DF90CF9008950F931F93CF93E6
:100BE000DF93EC01EA85FB8509C013810481CF0105
:100BF0000E949413212F302FC901FC013097A9F7CF
:100C00001B861A86DF91CF911F910F9108950F9344
:100C10001F93CF93DF93C0914001D09141010BC04E
:100C20001C850D85CE01D9DFCE010E949413212FA2
:100C3000302FC901EC01209799F780E8B4DB1092BE
:100C4000410110924001DF91CF911F910F910895C2
:100C5000CF93DF93682F4091400150914101EA0109
:100C6000E0E0F0E005C0FE018C859D859C01E90176
:100C70002097B9F088818617B1F70DC09093410194
:100C80008093400102C095878487CE01A6DFCE0104
:100C90000E94941306C08C859D85C417D50799F7CB
:100CA000EDCFDF91CF9108951F93CF93DF93162F50
:100CB0008CDBEC01009711F14A855B85FA01A0E01D
:100CC000B0E005C0DF01838194819C01F901309778
:100CD000A9F080818117B1F70BC09B878A8704C078
:100CE00014969C938E931397CF010E94941306C081
:100CF00083819481E417F50799F7EFCFDF91CF91C6
:100D00001F910895DF92EF92FF920F931F93CF935D
:100D1000DF93D62E5ADB7C01009719F4C0E0D0E0B7
:100D200029C0FC01C285D38500E010E008C088819D
:100D30008D1501F18E018B819C819C01E901209729
:100D4000B1F785E090E00E94E712FC01EC0100970A
:100D500019F480E819DB0EC014821382D082F701E7
:100D600082859385892B19F4D387C28703C0F80144
:100D7000D483C383CE01DF91CF911F910F91FF9058
:100D8000EF90DF9008950F931F93142F022FBADF77
:100D9000FC01009711F0118302831F910F910895B8
:100DA000DF92EF92FF920F931F93CF93DF93E82E82
:100DB000F62E8A01D22EE0914001F0914101C0E06F
:100DC000D0E005C0EF01848595859C01F90130973D
:100DD00021F080818E15B1F726C08EE090E00E9450
:100DE000E712FC01009719F480E8CEDA27C01582DB
:100DF0001682178210861186F18213830283D482B1
:100E0000E0821386128615861486809140019091A7
:100E10004101892B29F4F0934101E09340010EC078
:100E2000FD87EC870BC01582F18213830283D48285
:100E30001682178210861186CF01CFDEDF91CF9107
:100E40001F910F91FF90EF90DF900895CF92DF9266
:100E5000EF92FF920F931F93DF93CF9300D000D0B8
:100E60000F92CDB7DEB780E090E00E941914F82E03
:100E700081E090E00E94191480935001C8DE25E0C3
:100E8000E22E6E010894C11CD11C15C0FE9CB0015D
:100E9000112463507040C60145E050E00E940914DF
:100EA0001C8100E08B81A801480F511D89816A8156
:100EB0002D8176DFFA94FF2049F70F900F900F9065
:100EC0000F900F90CF91DF911F910F91FF90EF90B6
:100ED000DF90CF900895CF93DF9341E08030940767
:100EE00009F47EC08052914009F07AC0F9019081E6
:100EF000992309F05CC0E90125962581DF0114964C
:100F000094818181843031F1853050F48130A1F0B9
:100F1000813080F0823091F0833009F061C017C0D9
:100F2000863011F18630C0F0873079F1883009F0D1
:100F300057C016C002DE54C089DF52C0522F40E0B5
:100F4000490F511D8281638126812ADF49C0828138
:100F50007FDE46C05CDE44C082818093500140C089
:100F6000828180933A013CC08281809330018381E9
:100F7000809331018C918093320188818093330179
:100F800010923C0110923B012BC0953628F4253677
:100F900048F4921738F002C0253620F08281638130
:100FA00083DE1EC082816381492FEDDE19C091303E
:100FB00071F48181805880934C01828180588093A4
:100FC0004D01838180934B0190933D0109C0923084
:100FD00039F4818180933E0110923D0110923F01CE
:100FE000DF91CF910895DA019330C1F0943030F45D
:100FF000913051F0923009F04FC00BC0913221F185
:10100000923209F049C032C0E8E5F1E022E130E077
:1010100047C0EAE6F1E024E530E042C0813051F01B
:10102000813020F0823009F037C008C0EEEBF1E0EB
:10103000849107C0E2ECF1E0849103C0E4EDF1E0BB
:101040008491282F30E02CC0613041F0613018F0DD
:10105000623011F508C0ECE7F1E002C0E5E9F1E02B
:1010600029E030E01DC0EEEAF1E0FACF613051F046
:10107000613018F0623081F40AC0E9EFF0E02FE34C
:1010800030E00EC0ECEAF0E02DE430E009C0E8E327
:10109000F1E020E230E004C0E0E0F0E020E030E009
:1010A000ED93FC93C90108958BEE1AD28A3FB9F5EE
:1010B00009D280936F0106D28093700103D2382F3A
:1010C00020917001222351F4882359F480916F01FB
:1010D00090E087709070892B21F417C0203809F4B4
:1010E00021E820937001303809F431E880916F01D4
:1010F000877080936F013195309371011092720166
:10110000109273018FE691E0B9D2109270011092A3
:101110007101109272011092730110926F01089583
:101120001F938BEEDDD18A3F09F04DC0CBD1182F34
:10113000C9D180937001C6D180937101C3D1482F6A
:101140001092730180916F0190E09C0120783070C3
:1011500053E0359527955A95E1F78074907033E008
:10116000959587953A95E1F7282B1770212B2093B9
:101170006F0190917001992349F480917101882346
:1011800041F4442331F4222321F413C0903809F4AC
:1011900091E89093700180917101803809F481E8A1
:1011A0008195809371014195409372018FE691E0A2
:1011B00065D210927001109271011092720110921A
:1011C000730110926F011F9108951F938BEE88D1C8
:1011D0008A3FC9F577D1182F75D18093700172D1EC
:1011E000809371016FD1282F1092730117701093A3
:1011F0006F0190917001992349F4809171018823C6
:1012000041F4222331F4112321F413C0903809F45E
:1012100091E89093700180917101803809F481E820
:101220008195809371012195209372018FE691E061
:1012300025D21092700110927101109272011092D9
:10124000730110926F011F91089580917401833092
:1012500029F0853021F0813019F426CFB6CF60CF48
:1012600008951F9310927401D7D180E197E220E98D
:1012700031E0F9013197F1F70197D9F78FEF30D1CC
:101280008A3F09F051C01ED11DD1882319F481E095
:101290008093740188EE24D18A3F09F045C083E031
:1012A0001FD18A3F09F040C086EE1AD18A3F09F06B
:1012B0003BC086EE15D18A3F09F036C086EE10D1CC
:1012C0008A3F09F031C089EE0BD18A3F69F5FAD027
:1012D000F9D0182FF7D0133321F4853511F485E0B8
:1012E00011C083EFFDD088ECFBD083EFF9D084E60A
:1012F000F7D083EFF5D080E5F3D082EFF1D0E2D0E4
:10130000833011F48093740188EEEAD08A3F61F44F
:1013100083E0E6D086EEE4D08A3F31F483EFE0D07C
:1013200088ECDED080EFDCD0809174011F910895AD
:101330001F93CF93DF93EC0115E004C0812F8A95B2
:10134000F1F721977CD1882311F02097B9F7CE01CE
:10135000DF91CF911F9108951F93CF93DF93EC01FD
:1013600015E004C0812F8A95F1F7219768D1882371
:1013700011F42097B9F7CE01DF91CF911F91089515
:1013800058D16CC1DF92EF92FF920F931F93CF93CE
:10139000DF931092750150D161D184E690E0C8DFEF
:1013A000892B51F05ED1882309F47FC085E08A95AE
:1013B000F1F757D182E04EC081E04CC083E04AC0D3
:1013C00000E011E0C0E0D0E0DD24D39481E0E82E1D
:1013D000F12C82E390E0ACDF892B11F484E03AC079
:1013E00040D1882349F01D25C7010C2E02C0880F6B
:1013F000991F0A94E2F7082B82E390E0ADDF892B76
:1014000011F485E027C02196C830D10511F782E399
:1014100090E08EDF892B11F486E01CC022D1811769
:1014200011F080E117C082E390E096DF892B11F480
:1014300087E010C082E390E07BDF892B51F011D16F
:10144000882309F039C085E08A95F1F70AD189E04F
:1014500001C088E080937501209175012430D0F09F
:1014600004C08AE0F7CF8CDF17C000D000D0EDB702
:10147000FEB731968AEE91E0ADB7BEB712969C9357
:101480008E931197228313820E94BB010F900F90BD
:101490000F900F9075DF00E0802FDF91CF911F91AB
:1014A0000F91FF90EF90DF90089582E390E054DF7A
:1014B000892B09F483CF84CF82E390E04DDF892B21
:1014C00081F2D1CF1F931AEF5DDF982F11501F3F8C
:1014D00021F0809175018823B9F7892F1F91089514
:1014E000DF92EF92FF920F931F93CF93DF93F82E2B
:1014F0001092750145DF80E991E00197F1F7ABD0DB
:101500009BD080E197E214DF892B11F48AE075C04B
:1015100011E0C0E0D0E090E5D92EEF2CFF2401E0EF
:101520008D2D8A95F1F7C7010C2E02C095958795F0
:101530000A94E2F780FF03C0102790D001C08BD03F
:1015400082E390E009DF892B11F482E056C082E348
:1015500090E0EEDE892B11F483E04FC02196C83075
:10156000D105F1F680E58A95F1F7112311F076D0D7
:1015700001C071D082E390E0EFDE892B11F484E0AA
:101580003CC082E390E0D4DE892B11F485E035C0C5
:1015900080E58A95F1F762D0C2E3D0E015E004C09F
:1015A000812F8A95F1F721975CD0882319F0209735
:1015B000B9F702C0CD2B11F486E01FC082E390E0A2
:1015C000B7DE892B11F487E018C082E390E0C4DE17
:1015D000892B21F0C2E3D0E015E006C088E00DC001
:1015E000812F8A95F1F721973CD0882319F4209711
:1015F000B9F702C0CD2B31F489E080937501C0DECC
:1016000080E002C0BDDE5EDFDF91CF911F910F91C0
:10161000FF90EF90DF9008950BD01CD088EA91E600
:1016200020E931E0F9013197F1F70197D9F7A8CE18
:1016300008955998519A08955198599A0895519832
:10164000599A85E08A95F1F789B190E0969587954A
:101650008170089508955898509A08955098589A0E
:1016600008955098589A85E08A95F1F789B181706C
:10167000089590937701809376010895E091760123
:10168000F0917701309721F00190F081E02D0995DC
:10169000089582E084BD93E095BD9AEF97BD809355
:1016A0006E0008958FB7F89420917A0130917B01F4
:1016B00040917C0150917D018FBFC9010895EF9247
:1016C000FF920F931F93BC018FB7F894E0907A01BB
:1016D000F0907B0100917C0110917D018FBFA801EA
:1016E000970140705070CB01A0E0B0E02817390797
:1016F0004A075B0720F09701261B370B05C09B01AB
:10170000209530952E0D3F1DC9011F910F91FF901F
:10171000EF9008951F920F920FB60F9211248F939E
:101720009F93AF93BF9380917A0190917B01A09199
:101730007C01B0917D010196A11DB11D80937A01BC
:1017400090937B01A0937C01B0937D01BF91AF91F9
:101750009F918F910F900FBE0F901F9018959C0135
:101760004091890150918A014617570718F4F901F1
:1017700090E043C06115710511F0AB01F8CF809185
:10178000E8008E778093E80040E050E0F0CF809151
:101790008201882309F447C0853009F446C080914E
:1017A000E80083FD44C08091E80082FD36C080914E
:1017B000E80080FF22C08091F3009091F200782F22
:1017C00060E0292F30E0262B372B07C081918093D2
:1017D000F100415050402F5F3F4F4115510519F026
:1017E0002830310598F390E02830310509F491E074
:1017F0008091E8008E778093E8004115510539F615
:10180000992329F60AC080918201882361F08530EE
:1018100061F08091E80083FD0AC08091E80082FFBA
:10182000F2CF80E0089582E0089583E0089581E09A
:1018300008959C016115710529F48091E8008B776A
:101840008093E800F90127C080918201882399F1F3
:10185000853099F18091E80083FF02C081E008950E
:101860008091E80082FFF0CF06C08091F100819363
:101870006150704059F02091F3008091F200322FB6
:1018800020E090E0822B932B892B79F78091E80060
:101890008B778093E80061157105B1F606C08091E1
:1018A0008201882341F0853041F08091E80080FF7B
:1018B000F6CF80E0089582E0089583E008959C01CA
:1018C0004091890150918A014617570718F4F90190
:1018D00090E044C06115710511F0AB01F8CF809123
:1018E000E8008E778093E80040E050E0F0CF8091F0
:1018F0008201882309F448C0853009F447C08091EB
:10190000E80083FD45C08091E80082FD37C08091EA
:10191000E80080FF23C08091F3009091F200782FBF
:1019200060E0292F30E0262B372B08C0849180936C
:10193000F1003196415050402F5F3F4F4115510506
:1019400019F02830310590F390E02830310509F482
:1019500091E08091E8008E778093E8004115510571
:1019600031F6992321F60AC080918201882361F023
:10197000853061F08091E80083FD0AC08091E80025
:1019800082FFF2CF80E0089582E0089583E0089519
:1019900081E00895BF92CF92DF92EF92FF920F9372
:1019A0001F93CF93DF93182F092F7B016A01D9D0A2
:1019B000B82E8823B1F5812F902F9C01E901C11425
:1019C000D10439F0F60180819181E81AF90AC80F33
:1019D000D91F00E010E022C08091E80085FD16C00C
:1019E0008091E8008E778093E80083D3C114D104FE
:1019F00049F0F60180819181800F911F918380834E
:101A000085E010C0AED0882349F00CC08991809346
:101A1000F1000894E108F1080F5F1F4FE114F10491
:101A2000D9F68B2DDF91CF911F910F91FF90EF9001
:101A3000DF90CF90BF900895382F282F2EC0822F8F
:101A40008F708093E900231721F4762F942F50E0B4
:101A500006C07091EC009091ED005091F00091FF64
:101A60001BC08091EB008E7F8093EB008091ED0096
:101A70008D7F8093ED008091EB0081608093EB007F
:101A80007093EC009093ED005093F0008091EE0085
:101A900087FD02C080E008952F5F273080F23F70FD
:101AA0003093E90081E008950F931F93CF93DF9364
:101AB000062FEC0110E02AC09881992329F16B814F
:101AC000E981FA812C81892F8F70873018F52230B7
:101AD00010F452E001C056E040E028E030E003C0DE
:101AE0004F5F220F331F2E173F07D0F36295660F0B
:101AF000660F607C991F9927991F692B4295407F3B
:101B0000452B9ADF882331F01F5F25961017A0F22E
:101B100081E001C080E0DF91CF911F910F91089586
:101B20008091830188239CF404C0809182018823E2
:101B3000B9F08091E80082FFF8CF8091E8008B77C0
:101B40008093E800089580918201882349F0809174
:101B5000E80080FFF8CF8091E8008E778093E8005E
:101B600008954091E4005091E50024E68091EC0056
:101B700080FF24C08091E80080FD1EC0809182011A
:101B8000882311F482E00895853011F483E00895EC
:101B90008091EB0085FF02C081E008958091E40010
:101BA0009091E5008417950709F3222311F484E04E
:101BB00008952150AC01DACF80E008958091E800CB
:101BC00082FFDCCFF9CFEF92FF920F931F934FD09C
:101BD00056D008ED10E0F80180818F7780838081F6
:101BE0008068808380818F7D808319BC1092820100
:101BF00010927E011092800110927F0180EEE82EFB
:101C0000F12CF70180818B7F8083F80180818160D6
:101C1000808380E060E042E00FDFE1EEF0E0808171
:101C20008E7F8083E2EEF0E080818160808380811E
:101C300088608083F70180818E7F8083F8018081B6
:101C4000806180831F910F91FF90EF900895E8EDE0
:101C5000F0E080818F7E8083E7EDF0E0808181601D
:101C6000808384E082BF81E080938101ACCFE8ED86
:101C7000F0E080818E7F80831092E20008951092C0
:101C8000DA001092E10008951F920F920FB60F92A2
:101C900011242F933F934F935F936F937F938F9371
:101CA0009F93AF93BF93EF93FF938091E10082FFE7
:101CB0000BC08091E20082FF07C08091E1008B7F22
:101CC0008093E1000E9457028091DA0080FF1FC0DC
:101CD0008091D80080FF1BC08091DA008E7F8093B6
:101CE000DA008091D90080FF0DC080E189BD82E1DA
:101CF00089BD09B400FEFDCF81E0809382010E947E
:101D0000540205C019BC109282010E9455028091B4
:101D1000E10080FF18C08091E20080FF14C0809134
:101D2000E2008E7F8093E2008091E20080618093E8
:101D3000E2008091D80080628093D80019BC85E0D1
:101D400080938201D5D18091E10084FF2FC08091E2
:101D5000E20084FF2BC080E189BD82E189BD09B426
:101D600000FEFDCF8091D8008F7D8093D8008091B8
:101D7000E1008F7E8093E1008091E2008F7E80936E
:101D8000E2008091E20081608093E20080917E0118
:101D9000882311F084E007C08091E30087FD02C032
:101DA00081E001C083E080938201A2D18091E100B3
:101DB00083FF22C08091E20083FF1EC08091E1007A
:101DC000877F8093E10082E08093820110927E0100
:101DD0008091E1008E7F8093E1008091E2008E7F10
:101DE0008093E2008091E20080618093E20080E0D5
:101DF00060E042E021DE7CD1FF91EF91BF91AF9195
:101E00009F918F917F916F915F914F913F912F9112
:101E10000F900FBE0F901F9018951F93DF93CF93D5
:101E2000CDB7DEB7AC970FB6F894DEBF0FBECDBF0F
:101E3000E3E8F1E08091F100819321E0EB38F207D3
:101E4000C9F70E9400058091E80083FF39C18091A5
:101E5000830130918401353009F487C0363040F475
:101E60003130C9F1313070F0333009F029C133C05D
:101E7000383009F4F6C0393009F405C1363009F0BC
:101E80001FC196C0803821F0823809F019C108C0FE
:101E900090917F0180918001882399F0926011C018
:101EA000809187018F708093E9008091EB0090E032
:101EB00025E0969587952A95E1F7982F91701092D5
:101EC000E9008091E800877F8093E8009093F1001B
:101ED0001092F100D1C0882319F0823009F0F0C0CF
:101EE00090E08F719070009721F0029709F0E8C0A0
:101EF0000CC080918501813009F0E2C01092800110
:101F0000333069F5809380012AC080918501882350
:101F100031F5209187012F7009F4D2C02093E90098
:101F20008091EB0080FF1BC0333021F48091EB00E7
:101F3000806213C08091EB0080618093EB0081E0B0
:101F400090E002C0880F991F2A95E2F78093EA007B
:101F50001092EA008091EB0088608093EB00109271
:101F6000E9008091E800877F8AC0882309F0A8C033
:101F7000109185011F778091E3008078812B8093F9
:101F8000E3008091E800877F8093E800C9DD8091BD
:101F9000E80080FFFCCF8091E30080688093E3003D
:101FA000112311F482E001C083E08093820188C094
:101FB0008058823008F084C080918501909186011C
:101FC00023E08C3D920709F033C083E08C838AE2E2
:101FD0008B837FB7F894DE0115966EE040E050E009
:101FE00011E2E62FF0E010935700849140FF03C008
:101FF00082958F706F5F8F70282F30E08A3018F0D5
:10200000C901C79602C0C901C0968D939D934F5FC9
:102010005F4F4431510529F77FBF8091E800877FEA
:102020008093E800CE0103966AE270E098DB13C06B
:1020300060918701AE014F5F5F4F0E94F307BC01C3
:10204000009709F43DC08091E800877F8093E80005
:1020500089819A8134DC8091E8008B778093E80055
:102060002FC0803869F58091E800877F8093E80071
:1020700080917E018093F1008091E8008E778093BB
:10208000E8004EDD1DC08823D9F49091850192307F
:10209000B8F48091E800877F8093E80090937E01F8
:1020A0003FDD80917E01882331F48091E30087FD3C
:1020B00002C081E001C084E0809382010E940C058F
:1020C0008091E80083FF0AC08091E800877F8093B9
:1020D000E8008091EB0080628093EB00AC960FB635
:1020E000F894DEBF0FBECDBFCF91DF911F91089551
:1020F00008951F9380918201882371F01091E90067
:102100008091EC001092E9008091E80083FF01C00B
:1021100084DE1F701093E9001F9108954F925F9223
:102120006F927F928F929F92AF92BF92CF92DF92E7
:10213000EF92FF920F931F93DF93CF9300D00F92F4
:10214000CDB7DEB77C016DB67EB68091820184305A
:1021500009F09AC02091E4003091E500F7018285F2
:1021600093858217930709F48FC081818F708093C4
:10217000E9008091E80085FF87C05DB64EB64085D6
:1021800050E08DB79EB7841B950B0FB6F8949EBF99
:102190000FBE8DBF0DB71EB70F5F1F4F19821B8279
:1021A0001A82C02E912EC80160E070E050E02AD360
:1021B000C701BE016F5F7F4F40E098018E010E5F47
:1021C0001F4F0E947902882EF70184859585892BFF
:1021D00019F4AA24BB240BC020E0F701868597855B
:1021E000892B09F021E081E02827A22EBB24F701EA
:1021F000068117810115110511F4DD2412C04A81F1
:102200005B818C2D992DB801E7D2DD24009711F068
:10221000DD24D394F7014085C8016C2D792D50E061
:10222000E8D28A819B81892B01F1882021F4DD206D
:1022300011F4AB28D1F0F7018485958597878687BF
:1022400081818F708093E9008981882311F08093C8
:10225000F1006A817B818C2D992D40E050E09ADB62
:102260008091E8008E778093E8008091E40090915F
:10227000E500F70193878287252D342DC9010FB61C
:10228000F8949EBF0FBE8DBF0FB6F8947EBE0FBEF2
:102290006DBE0F900F900F90CF91DF911F910F9116
:1022A000FF90EF90DF90CF90BF90AF909F908F9076
:1022B0007F906F905F904F900895CF93DF93DC01F4
:1022C0000996FC0187E0EF0119928A95E9F781E010
:1022D00019968C93199784EF91E01D969C938E9399
:1022E0001C9783E014968C931497CD01019661E0BE
:1022F000DBDB811181E0DF91CF9108956F927F92B6
:102300008F929F92AF92BF92CF92DF92EF92FF9205
:102310000F931F93DF93CF9300D00F92CDB7DEB70B
:102320006C016DB67EB68091E80083FF1AC1F6019C
:10233000808190E02091870130918801281739072A
:1023400009F00FC180918401833009F4B2C0843058
:1023500030F4813071F0823009F003C1E6C08A3078
:1023600009F4CBC08B3009F4B5C0893009F0F9C04D
:102370005CC080918301813A09F0F3C09DB68EB6AE
:102380001B821A8280918501109186018983F60152
:10239000408550E08DB79EB7841B950B0FB6F8941F
:1023A0009EBF0FBE8DBFEDB6FEB60894E11CF11CBA
:1023B000BE2CAF2CC70160E070E050E023D211507A
:1023C000C601BE016F5F7F4F412F97018E010E5FE7
:1023D0001F4F0E947902F6012681378121153105B0
:1023E00029F04085C901B70150E003D21092E900FD
:1023F0008091E800877F8093E8008981882311F02D
:102400008093F1006A817B818B2D9A2DA8D98091D0
:10241000E8008B778093E800292D382DC9010FB68D
:10242000F8949EBF0FBE8DBF9CC080918301813206
:1024300009F097C09DB68EB60091890110918A016E
:10244000A0908501B09086018DB79EB7801B910B3F
:102450000FB6F8949EBF0FBE8DBFEDB6FEB60894C2
:10246000E11CF11C8091E800877F8093E800C701A0
:10247000B801DFD98091E8008E778093E80080E092
:1024800090E0AA2011F081E090E0BA94E80EF91EE5
:10249000081B190BC6016A2D4B2D97010E946B0773
:1024A000892D982D9C010FB6F8943EBF0FBE2DBF0D
:1024B00058C080918301813A09F053C08091E800AF
:1024C000877F8093E8008091E80080FFFCCFF601D1
:1024D00081853FC080918301813209F042C08091A3
:1024E000E800877F8093E8001BDB90E08091850106
:1024F000811191E0F601918734C08091830181328E
:1025000081F58091E800877F8093E80009DB809166
:10251000850190918601807036E0969587953A9571
:10252000E1F7F601958784871CC080918301813A89
:10253000C1F48091E800877F8093E8008091E800F3
:1025400080FFFCCFF60184859585969587959695B5
:1025500087958093F1008091E8008E778093E80062
:10256000DFDA0FB6F8947EBE0FBE6DBE0F900F90EF
:102570000F90CF91DF911F910F91FF90EF90DF901F
:10258000CF90BF90AF909F908F907F906F90089565
:10259000629FD001739FF001829FE00DF11D649F47
:1025A000E00DF11D929FF00D839FF00D749FF00DD3
:1025B000659FF00D9927729FB00DE11DF91F639F74
:1025C000B00DE11DF91FBD01CF0111240895CF9376
:1025D000DF93BC018230910510F462E070E0A091BD
:1025E0008D01B0918E01ED01E0E0F0E040E050E0BF
:1025F00021C0888199818617970769F48A819B8118
:10260000309719F09383828304C090938E01809356
:102610008D01FE0134C06817790738F44115510562
:1026200019F08417950708F4AC01FE018A819B819B
:102630009C01E9012097E9F641155105A9F1CA016C
:10264000861B970B049708F4BA01E0E0F0E02AC07B
:102650008D919C91119784179507F9F4641775076C
:1026600081F412968D919C911397309719F0938372
:10267000828304C090938E0180938D01FD01329678
:102680004FC0CA01861B970BFD01E80FF91F61932C
:10269000719302978D939C9343C0FD018281938136
:1026A0009C01D9011097A1F680918B0190918C012A
:1026B000892B41F4809136019091370190938C01E0
:1026C00080938B014091380150913901411551059A
:1026D00041F44DB75EB78091340190913501481BAC
:1026E000590B20918B0130918C0124173507B0F4E0
:1026F000CA01821B930B8617970780F0AB014E5FD0
:102700005F4F8417950750F0420F531F50938C0171
:1027100040938B01F9016193719302C0E0E0F0E016
:10272000CF01DF91CF910895CF93DF93009709F404
:1027300050C0EC0122971B821A82A0918D01B091AA
:102740008E01109709F140E050E0AC17BD0708F189
:10275000BB83AA83FE0121913191E20FF31FAE17D3
:10276000BF0779F48D919C911197280F391F2E5F27
:102770003F4F3983288312968D919C9113979B83A9
:102780008A834115510571F4D0938E01C0938D0158
:1027900020C012968D919C911397AD01009711F076
:1027A000DC01D3CFFA01D383C28321913191E20FAF
:1027B000F31FCE17DF0769F488819981280F391F2D
:1027C0002E5F3F4FFA01318320838A819B8193835F
:1027D0008283DF91CF910895FB01DC0104C08D91CC
:1027E0000190801921F441505040C8F7881B990B83
:1027F0000895FB01DC0102C001900D924150504050
:10280000D8F70895DC0101C06D9341505040E0F7C6
:102810000895DC01CB01FC01F999FECF06C0F2BDA1
:10282000E1BDF89A319600B40D9241505040B8F78E
:102830000895F999FECF92BD81BDF89A992780B588
:102840000895DC01CB0102C02D9105D041505040CC
:10285000D8F70895262FF999FECF1FBA92BD81BDF2
:1028600020BD0FB6F894FA9AF99A0FBE0196089512
:04287000F894FFCF0A
:102874000081080000015A01080000000000000067
:10288400018308000001620105000000000000004F
:102894000287080000016701080000000000000032
:0A28A400FFFFFFFF20008F0100007E
:00000001FF
