:10000000F8C0000012C1000010C100000EC10000C5
:100010000CC100000AC1000008C1000006C10000B8
:1000200004C1000002C100000C94820EFEC000005A
:10003000FCC00000FAC00000F8C00000F6C00000DC
:10004000F4C00000F2C00000F0C00000EEC00000EC
:10005000ECC000000C94C80BE8C00000E6C0000033
:10006000E4C00000E2C00000E0C00000DEC000000C
:10007000DCC00000DAC00000D8C00000D6C000001C
:10008000D4C00000D2C00000D0C00000CEC000002C
:10009000CCC00000CAC00000C8C00000C6C000003C
:1000A000C4C00000C2C00000C0C0000005010902B9
:1000B000A1010901A1000509190129051500250162
:1000C00095057501810295017503810105010930CE
:1000D00009311581257F950275088106093815813A
:1000E000257F950175088106050C0A3802158125C2
:1000F0007F950175088106C0C005010906A10105AB
:100100000719E029E7150025017501950881029579
:1001100001750881010508190129059505750191E9
:1001200002950175039101150025FF0507190029A6
:10013000FF950675088100C00600FF0901A10109AD
:1001400002150025FF750895018102090315002598
:10015000FF750895089102C0120110010000000807
:10016000EB034D20010001020001090254000301CC
:1001700000C032090400000103010100092111013E
:100180000001223F00070581030800050904010062
:100190000103010200092111010001224D000705A0
:1001A000830308000509040200010300000009217F
:1001B0001101000122200007058703080005040340
:1001C0000904100355006E006E0061006D006500AB
:1001D00064000000140342004200200044006F004D
:1001E0006E0067006C006500000078253032580A08
:1001F000000011241FBECFEFDAE0DEBFCDBF11E05B
:10020000A0E0B1E0E0EFF8E202C005900D92AA3361
:10021000B107D9F711E0AAE3B1E001C01D92A239FC
:10022000B107E1F7CDD20C947614EACEFF93EF93A9
:10023000E0917B01F0917C01309709F00995EF91F5
:10024000FF910895FC018591803011F0EFDFFBCF25
:100250000895FF27E0E230E247FF0CC0419597FF89
:1002600009C0EDE26095709580959095611D711DB6
:10027000811D911D27FF02C0219530E350E2AA277E
:10028000660F771F881F991FAA1FA41710F0A41BC1
:1002900063955A95A9F7AA3008F0A95FA05DAF93BE
:1002A000F395611571058105910541F7ED3211F462
:1002B000EF93F395F21718F43F93F395FBCF8F91DB
:1002C000B5DFFA95E1F70895E991F99185918030CC
:1002D00021F0853219F0AADFF9CF089520E0E894E3
:1002E00055915532C1F3503311F4689455915A33F6
:1002F00048F4505390F3220F022E220F220F200DAC
:10030000250FF4CF0EF4219589919991533619F365
:10031000533729F1533559F1BC0188279927E894BF
:100320005C3621F48991999168945591543639F449
:1003300046EF7EF077FF0DC08FEF9FEF0AC0553775
:100340004AE039F0583540E121F0523642E009F0F8
:100350000895FF93EF937DDFEF91FF91B7CFFF9368
:10036000EF93FC0181918030B9F360DFFBCFFF9305
:10037000EF9368DFF1CFDF93CF93CDB7DEB725964C
:10038000A3DFCF91DF91089525B1982F9170922B23
:1003900095B92BB1982F9072922B9BB998B1807818
:1003A000982B98B9089580913B01089585E491E0D8
:1003B00008958AE491E0089580913C010895809128
:1003C0003A01089580933C01089580933A0108957D
:1003D000FC0180818F71808380913A01882371F5BF
:1003E00080913F01882351F58181813C14F481E89B
:1003F00005C0880F803414F08FE701C0880F818317
:100400008281813C14F481E805C0880F803414F0A7
:100410009FE702C0982F990F9283818180934601B4
:10042000909347018381809348018481809349019F
:1004300080818093450181E080933A0180818830FA
:1004400071F0893028F4853051F08630A9F40BC062
:10045000803149F0813169F0893071F407C081E061
:1004600080933B01089510923B01089510923F0143
:10047000089581E080933F0108959C0180913B01A4
:100480008823B1F480913D0190913E01820F931F2A
:1004900090933E0180933D01885E934058F013B8DD
:1004A00019B880E886B910923E0110923D01089576
:1004B00080E86ACF0895089515BC089580910E01D3
:1004C00090910F01009729F0019790930F0180936D
:1004D0000E0180911E0190911F01009729F0019754
:1004E00090931F0180931E0180912E0190912F0106
:1004F000009729F0019790932F0180932E01089582
:1005000041E08030940709F464C08052914009F0C2
:1005100060C0F9019081992309F042C0258194813E
:100520008181843011F1853050F4813099F081302F
:1005300080F0823081F0833009F04BC014C08630E7
:10054000D9F0863098F08730D9F0883009F041C072
:1005500011C05FC229C5522F40E0490F511D828151
:1005600063812681C8C48281E3C2BEC28281809336
:100570004A0108958281E0C182816381492F03C2CB
:10058000953628F4253640F4921730F002C025360F
:1005900018F082816381F8C282816381492F9EC4F1
:1005A000913071F481818058809346018281805816
:1005B0008093470183818093450190933A01089588
:1005C000923039F4818180933B0110923A0110926C
:1005D0003C0108950F931F93CF93DF93AC01D90192
:1005E000980181E04030580769F0E1E040315E0752
:1005F00009F444C081E083B919B816B8405251409B
:10060000D9F56BC01C92CD010296FC0186E0EF018A
:1006100019928A95E9F780913C01882341F18091F4
:100620003B01813021F480914A018C9301C01C92DE
:1006300080914C0112968C93129780914D011396E4
:100640008C93139780914E0114968C9314978091FC
:100650004F0115968C9315978091500116968C93A7
:1006600016978091510117968C9310923C0188E067
:1006700090E0F9019183808380E03CC011961C9248
:10068000119712961C92129714961C921497139617
:100690001C92139780913A018823C9F080914601FA
:1006A00011968C9311978091470112968C93129713
:1006B0008091480113968C93139780914901149669
:1006C0008C931497809145018C9310923A0185E0A8
:1006D00090E0E901998388830CC013B880E289B95E
:1006E00016B880913B018C9381E090E0F8019183F2
:1006F000808381E0DF91CF911F910F91089580E079
:1007000091E00E94BC1180E191E00E94BC1180E266
:1007100091E00C94BC1180E091E00E949B1180E17B
:1007200091E00E949B1180E291E00E949B11E2EE19
:10073000F0E08081846080830895D5D48823A9F473
:1007400028985D984798B5D5882311F480E806C0AD
:10075000853011F480E202C0813009F415CE833077
:1007600021F481E011DE80E20FCE089584B7877F07
:1007700084BF88E10FB6F894809360001092600007
:100780000FBE80E090E020E80FB6F894209361005F
:10079000809361000FBE6A98729A209A2898559AA1
:1007A0005D983F9A47980E94650EB1D788EE91E018
:1007B000909353018093520182E591E098D7BDCF89
:1007C0001F93D4DF10924A0180EA9FE00197F1F76E
:1007D0008CB1809584708093400128985D984798EB
:1007E00080E260E04AE050E020E085D3789411E0B8
:1007F0009CB19095947080914001981730F480914D
:100800003B01212F281B20933B019093400145D5AC
:10081000809143019091440190D72FDE8091430154
:10082000909144018AD78BD08091430190914401EB
:1008300084D701D475D7909344018093430180916C
:1008400041019091420179D78958934128F068D7A6
:10085000909342018093410180E091E00E94CC108E
:1008600080E191E00E94CC1080E291E00E94CC10E7
:100870000E94B710BDCFDA019330C1F0943030F44C
:10088000913051F0923009F04FC00BC0913221F1FC
:10089000923209F049C032C0E8E5F1E022E130E0EF
:1008A00047C0EAE6F1E024E530E042C0813051F093
:1008B000813020F0823009F037C008C0EEEBF1E063
:1008C000849107C0E2ECF1E0849103C0E4EDF1E033
:1008D0008491282F30E02CC0613041F0613018F055
:1008E000623011F508C0ECE7F1E002C0E5E9F1E0A3
:1008F00029E030E01DC0EEEAF1E0FACF613051F0BE
:10090000613018F0623081F40AC0E9EFF0E02FE3C3
:1009100030E00EC0ECEAF0E02DE430E009C0E8E39E
:10092000F1E020E230E004C0E0E0F0E020E030E080
:10093000ED93FC93C901089580936F010895209170
:1009400070013091710147E0213D3407A8F08FEF2D
:100950008093300180933101809332018093330181
:1009600080ED97E0909371018093700185B185B916
:100970005D9888B188B90895280F391F30937101A7
:10098000209370010895809330016093310140936A
:100990003201209333011092710110927001089579
:1009A000482FE0916901F0916A0107C080818417A6
:1009B00031F0848595859C01F9013097B9F7CF0115
:1009C0000895FC01A285B38541E01FC0EC91F0E0E1
:1009D000E05DFE4FE081E53608F040E011968C9135
:1009E0001197853618F4E81708F440E012968C91B8
:1009F0001297853618F48E1708F440E013968C9100
:100A0000139714969C919C01D9011097F9F6842FA5
:100A10000895CF92DF92EF92FF920F931F93DF938F
:100A2000CF9300D000D00F92CDB7DEB7009169010F
:100A300010916A01FF2485E0E82E6E010894C11C24
:100A4000D11C1BC0F8018081898381818A838281C6
:100A50008B8383818C8384818D83FE9CB0011124E0
:100A60006E5F7F4FC60145E050E00E945F14F801C1
:100A700024853585C9018C01F3940115110511F701
:100A800080E090E06F2D0E94681493DCFC0181E00F
:100A900090E060810E9468140F900F900F900F906B
:100AA0000F90CF91DF911F910F91FF90EF90DF900A
:100AB000CF9008950F931F93CF93DF93EC01EA85B6
:100AC000FB8509C013810481CF010E94D213212F1D
:100AD000302FC901FC013097A9F71B861A86DF91D8
:100AE000CF911F910F9108950F931F93CF93DF9391
:100AF000C0916901D0916A010BC01C850D85CE01A2
:100B0000D9DFCE010E94D213212F302FC901EC0171
:100B1000209799F785B185B98BB18BB94798109219
:100B20006A0110926901DF91CF911F910F91089591
:100B3000CF93DF93682F4091690150916A01EA01D8
:100B4000E0E0F0E005C0FE018C859D859C01E90197
:100B50002097B9F088818617B1F70DC090936A018C
:100B60008093690102C095878487CE01A3DFCE01FF
:100B70000E94D21306C08C859D85C417D50799F7AE
:100B8000EDCFDF91CF9108951F93CF93DF93162F71
:100B900007DFEC01009711F14A855B85FA01A0E0BF
:100BA000B0E005C0DF01838194819C01F901309799
:100BB000A9F080818117B1F70BC09B878A8704C099
:100BC00014969C938E931397CF010E94D21306C064
:100BD00083819481E417F50799F7EFCFDF91CF91E7
:100BE0001F9108955F926F927F928F929F92AF9222
:100BF000BF92CF92DF92EF92FF920F931F93CF930A
:100C0000DF93EC01D6DB7C0100E010E06624772462
:100C1000CC24DD24BB2434EF832E31E0932E22E05C
:100C2000522E93E0A92EE7C08D81813009F4C4C013
:100C30008130D8F0823021F0833009F0D7C015C060
:100C4000CE01BFDE813059F48E819F81A885B985A0
:100C50000097A105B10509F0C9C0AD82C7C01D82CA
:100C60001E821F8218861986C1C08E819F81A88529
:100C7000B9850097A105B10509F0B8C080916B0155
:100C800090916C01A0916D01B0916E010097A1054A
:100C9000B10509F0ABC087DB882309F4A7C0CE01FA
:100CA00090DE813009F0A2C09C819923B9F08D813A
:100CB0008823A1F45D82892F90E09C01289DC001CA
:100CC000299D900D389D900D1124AA2797FDA09580
:100CD000BA2F8E839F83A887B98788C088818F3F6A
:100CE00009F44AC035E03B1508F480C0F701EB0D6C
:100CF000F11D828381E08D83898190E0FC01E89D74
:100D0000C001E99D900DF89D900D1124AA2797FD33
:100D1000A095BA2F80936B0190936C01A0936D0105
:100D2000B0936E0181E04EDB8C859D850115110528
:100D300029F490936A018093690103C0F8019587B3
:100D40008487C114D10411F46E0103C0F301D58767
:100D5000C4870115110519F0302F212F04C03091DF
:100D6000690120916A01B3941D861C863E01832F80
:100D7000922F9C01E9013AC019DBFC011182128219
:100D800080818160808381E08D83898190E09C01F6
:100D9000289DC001299D900D389D900D1124AA27F2
:100DA00097FDA095BA2F80936B0190936C01A0934F
:100DB0006D01B0936E0115C01D826A817B8180E058
:100DC00090E024E630E040E050E00E9406136E839D
:100DD0007F838887998788818F3F31F4E7DAFC0128
:100DE000108281E0F2DA02C081E0ECDA8E018C85BB
:100DF0009D859C01E901209709F016CF35E03B1550
:100E000080F02B2D30E0E6E0F0E0E21BF30B2E5FEC
:100E10003F4F2E0D3F1DC90160E070E0AF010E9401
:100E200040148091690190916A01892B21F0F801A9
:100E3000D586C48604C0D0926A01C0926901DF9150
:100E4000CF911F910F91FF90EF90DF90CF90BF90C7
:100E5000AF909F908F907F906F905F900895FF92DA
:100E60000F931F93CF93DF93F62E9ADD8C0100979B
:100E700019F4A0E0B0E02BC0FC01A285B385C0E06E
:100E8000D0E008C08C918F1511F1ED018B819C8110
:100E90009C01D9011097B1F785E090E00E942513DD
:100EA000FC01DC01009731F485B185B98BB18BB9B8
:100EB000479A0DC014821382F082F80182859385CF
:100EC000892B19F4B387A28702C0BC83AB83CD0101
:100ED000DF91CF911F910F91FF9008950F931F9372
:100EE000142F022FBCDFFC01009711F01183028345
:100EF0001F910F910895DF92EF92FF920F931F932E
:100F0000CF93DF93E82EF62E8A01D22EE09169016D
:100F1000F0916A01C0E0D0E005C0EF0184859585BD
:100F20009C01F901309721F080818E15B1F729C01D
:100F30008EE090E00E942513FC01009731F485B10A
:100F400085B98BB18BB9479A27C015821682178253
:100F500010861186F18213830283D482E082138685
:100F60001286158614868091690190916A01892BF9
:100F700029F4F0936A01E09369010EC0FD87EC87C4
:100F80000BC01582F18213830283D48216821782EA
:100F900010861186CF018EDDDF91CF911F910F91C9
:100FA000FF90EF90DF900895CF92DF92EF92FF9243
:100FB0000F931F93DF93CF9300D000D00F92CDB744
:100FC000DEB780E090E00E945714F82EF2D98C0131
:100FD00081E090E00E945714F801808385DD45E0B0
:100FE000E42E6E010894C11CD11C15C0FE9CB001FA
:100FF000112463507040C60145E050E00E94471440
:101000001C8100E08B81A801480F511D89816A81F4
:101010002D8171DFFA94FF2049F70F900F900F9008
:101020000F900F90CF91DF911F910F91FF90EF9054
:10103000DF90CF900895E0916901F0916A01AC01D1
:1010400060E070E01AC086819781A085B185841721
:101050009507A607B70728F480E090E0A0E0B0E08D
:1010600004C0841B950BA60BB70B86839783A087C0
:10107000B187848595859C01F901309721F780918E
:101080006B0190916C01A0916D01B0916E0184177C
:101090009507A607B70728F480E090E0A0E0B0E04D
:1010A00004C0841B950BA60BB70B80936B01909328
:1010B0006C01A0936D01B0936E0181D9882391F4E6
:1010C0007BD9882379F480916F01882319F08130CE
:1010D00049F405C08091690190916A0183CD80E057
:1010E00090E080CD08958091770108958BEE36D2FF
:1010F0008A3FB9F525D28093720122D28093730181
:101100001FD2382F20917301222351F4882359F4E0
:101110008091720190E087709070892B21F417C044
:10112000203809F421E820937301303809F431E8BC
:1011300080917201877080937201319530937401B0
:10114000109275011092760182E791E0D5D210924B
:101150007301109274011092750110927601109231
:10116000720108951F938BEEF9D18A3F39F5E8D1CA
:10117000182FE6D180937301E3D180937401E0D1FD
:10118000482F10927601812F90E09C0120743070DE
:1011900053E0359527955A95E1F78078907033E0C4
:1011A000959587953A95E1F7282B1770212B209379
:1011B000720190917301992369F403C01092770131
:1011C00026C080917401882341F4442331F4222302
:1011D00021F413C0903809F491E890937301809141
:1011E0007401803809F481E88195809374014195F8
:1011F0004093750182E791E07FD2109273011092C3
:1012000074011092750110927601109272011F9173
:1012100008951F938BEEA2D18A3FA1F491D1182F8C
:101220008FD1809373018CD18093740189D1282F41
:1012300010927601177010937201909173019923A7
:1012400069F403C01092770126C08091740188234D
:1012500041F4222331F4112321F413C0903809F40E
:1012600091E89093730180917401803809F481E8CA
:1012700081958093740121952093750182E791E017
:101280003BD210927301109274011092750110926A
:101290007601109272011F91089580917701833039
:1012A00029F0853021F0813019F420CFB2CF5ACF08
:1012B00008951F9310927701EDD180E197E220E924
:1012C00031E0F9013197F1F70197D9F78FEF46D166
:1012D0008A3F09F067C034D133D1882319F481E003
:1012E0008093770188EE3AD18A3F09F05BC083E0B2
:1012F00035D18A3F09F056C086EE30D18A3F09F0D9
:1013000051C086EE2BD18A3F09F04CC086EE26D123
:101310008A3F09F047C089EE21D18A3F09F042C0D7
:101320000FD10ED1182F0CD1133321F4853511F4C0
:1013300085E020C083EF12D18A3F09F033C088ECEA
:101340000DD18A3F79F583EF09D18A3F59F584E6BB
:1013500005D18A3F39F583EF01D18A3F19F580E540
:10136000FDD08A3FF9F482EFF9D08A3FD9F4E8D072
:10137000833011F48093770188EEF0D08A3F91F4A6
:1013800083E0ECD08A3F71F486EEE8D08A3F51F4D6
:1013900083EFE4D08A3F31F488ECE0D08A3F11F447
:1013A00080EFDCD0809177011F9108951F93CF9338
:1013B000DF93EC0115E004C0812F8A95F1F72197A6
:1013C0007CD1882311F02097B9F7CE01DF91CF911E
:1013D0001F9108951F93CF93DF93EC0115E004C094
:1013E000812F8A95F1F7219768D1882311F42097EE
:1013F000B9F7CE01DF91CF911F91089558D16CC1FB
:10140000DF92EF92FF920F931F93CF93DF9310928F
:10141000780150D161D184E690E0C8DF892B51F08A
:101420005ED1882309F47FC085E08A95F1F757D112
:1014300082E04EC081E04CC083E04AC000E011E091
:10144000C0E0D0E0DD24D39481E0E82EF12C82E3EB
:1014500090E0ACDF892B11F484E03AC040D18823BE
:1014600049F01D25C7010C2E02C0880F991F0A9450
:10147000E2F7082B82E390E0ADDF892B11F485E0E1
:1014800027C02196C830D10511F782E390E08EDFA6
:10149000892B11F486E01CC022D1811711F080E164
:1014A00017C082E390E096DF892B11F487E010C02B
:1014B00082E390E07BDF892B51F011D1882309F082
:1014C00039C085E08A95F1F70AD189E001C088E04A
:1014D00080937801209178012430D0F004C08AE014
:1014E000F7CF8CDF17C000D000D0EDB7FEB7319634
:1014F0008AEE91E0ADB7BEB712969C938E9311978A
:10150000228313820E94BB010F900F900F900F90C7
:1015100075DF00E0802FDF91CF911F910F91FF9039
:10152000EF90DF90089582E390E054DF892B09F477
:1015300083CF84CF82E390E04DDF892B81F2D1CF3E
:101540001F931AEF5DDF982F11501F3F21F08091FC
:1015500078018823B9F7892F1F910895DF92EF92C0
:10156000FF920F931F93CF93DF93F82E1092780181
:1015700045DF80E991E00197F1F7ABD09BD080E1A6
:1015800097E214DF892B11F48AE075C011E0C0E006
:10159000D0E090E5D92EEF2CFF2401E08D2D8A9527
:1015A000F1F7C7010C2E02C0959587950A94E2F7D2
:1015B00080FF03C0102790D001C08BD082E390E061
:1015C00009DF892B11F482E056C082E390E0EEDE61
:1015D000892B11F483E04FC02196C830D105F1F674
:1015E00080E58A95F1F7112311F076D001C071D012
:1015F00082E390E0EFDE892B11F484E03CC082E3CB
:1016000090E0D4DE892B11F485E035C080E58A9521
:10161000F1F762D0C2E3D0E015E004C0812F8A95D3
:10162000F1F721975CD0882319F02097B9F702C011
:10163000CD2B11F486E01FC082E390E0B7DE892B4A
:1016400011F487E018C082E390E0C4DE892B21F01A
:10165000C2E3D0E015E006C088E00DC0812F8A9576
:10166000F1F721973CD0882319F42097B9F702C0ED
:10167000CD2B31F489E080937801C0DE80E002C098
:10168000BDDE5EDFDF91CF911F910F91FF90EF9054
:10169000DF9008950BD01CD088EA91E620E931E074
:1016A000F9013197F1F70197D9F7A8CE0895599824
:1016B000519A08955198599A08955198599A85E0E8
:1016C0008A95F1F789B190E0969587958170089594
:1016D00008955898509A08955098589A0895509897
:1016E000589A85E08A95F1F789B1817008959093B1
:1016F0007A01809379010895E0917901F0917A015E
:10170000309721F00190F081E02D0995089582E055
:1017100084BD93E095BD9AEF97BD80936E000895C8
:101720008FB7F89420917D0130917E0140917F0127
:10173000509180018FBFC9010895EF92FF920F93DE
:101740001F93BC018FB7F894E0907D01F0907E016B
:1017500000917F01109180018FBFA8019701407017
:101760005070CB01A0E0B0E0281739074A075B07AB
:1017700020F09701261B370B05C09B012095309563
:101780002E0D3F1DC9011F910F91FF90EF900895FD
:101790001F920F920FB60F9211248F939F93AF93C6
:1017A000BF9380917D0190917E01A0917F01B091C6
:1017B00080010196A11DB11D80937D0190937E0152
:1017C000A0937F01B0938001BF91AF919F918F91C2
:1017D0000F900FBE0F901F9018959C0140918C01A7
:1017E00050918D014617570718F4F90190E043C056
:1017F0006115710511F0AB01F8CF8091E8008E778B
:101800008093E80040E050E0F0CF8091850188238C
:1018100009F447C0853009F446C08091E80083FD93
:1018200044C08091E80082FD36C08091E80080FFCE
:1018300022C08091F3009091F200782F60E0292F70
:1018400030E0262B372B07C081918093F100415067
:1018500050402F5F3F4F4115510519F02830310599
:1018600098F390E02830310509F491E08091E80088
:101870008E778093E8004115510539F6992329F6B2
:101880000AC080918501882361F0853061F08091E4
:10189000E80083FD0AC08091E80082FFF2CF80E07B
:1018A000089582E0089583E0089581E008959C0101
:1018B0006115710529F48091E8008B778093E80029
:1018C000F90127C080918501882399F1853099F12C
:1018D0008091E80083FF02C081E008958091E800D4
:1018E00082FFF0CF06C08091F1008193615070407B
:1018F00059F02091F3008091F200322F20E090E027
:10190000822B932B892B79F78091E8008B7780933A
:10191000E80061157105B1F606C080918501882344
:1019200041F0853041F08091E80080FFF6CF80E003
:10193000089582E0089583E008959C0140918C0110
:1019400050918D014617570718F4F90190E044C0F3
:101950006115710511F0AB01F8CF8091E8008E7729
:101960008093E80040E050E0F0CF8091850188232B
:1019700009F448C0853009F447C08091E80083FD30
:1019800045C08091E80082FD37C08091E80080FF6B
:1019900023C08091F3009091F200782F60E0292F0E
:1019A00030E0262B372B08C084918093F1003196CC
:1019B000415050402F5F3F4F4115510519F02830DD
:1019C000310590F390E02830310509F491E08091E1
:1019D000E8008E778093E8004115510531F6992390
:1019E00021F60AC080918501882361F0853061F07D
:1019F0008091E80083FD0AC08091E80082FFF2CF69
:101A000080E0089582E0089583E0089581E00895DC
:101A1000BF92CF92DF92EF92FF920F931F93CF93DB
:101A2000DF93182F092F7B016A01D9D0B82E8823A4
:101A3000B1F5812F902F9C01E901C114D10439F037
:101A4000F60180819181E81AF90AC80FD91F00E0D8
:101A500010E022C08091E80085FD16C08091E8006A
:101A60008E778093E80083D3C114D10449F0F60146
:101A700080819181800F911F9183808385E010C0C8
:101A8000AED0882349F00CC089918093F10008946E
:101A9000E108F1080F5F1F4FE114F104D9F68B2D17
:101AA000DF91CF911F910F91FF90EF90DF90CF903A
:101AB000BF900895382F282F2EC0822F8F708093CB
:101AC000E900231721F4762F942F50E006C070917F
:101AD000EC009091ED005091F00091FF1BC08091BF
:101AE000EB008E7F8093EB008091ED008D7F8093E3
:101AF000ED008091EB0081608093EB007093EC002F
:101B00009093ED005093F0008091EE0087FD02C0AD
:101B100080E008952F5F273080F23F703093E90016
:101B200081E008950F931F93CF93DF93062FEC016D
:101B300010E02AC09881992329F16B81E981FA810B
:101B40002C81892F8F70873018F5223010F452E0E5
:101B500001C056E040E028E030E003C04F5F220FB4
:101B6000331F2E173F07D0F36295660F660F607C18
:101B7000991F9927991F692B4295407F452B9ADF22
:101B8000882331F01F5F25961017A0F281E001C075
:101B900080E0DF91CF911F910F9108958091860190
:101BA00088239CF404C0809185018823B9F080913A
:101BB000E80082FFF8CF8091E8008B778093E800FF
:101BC000089580918501882349F08091E80080FF85
:101BD000F8CF8091E8008E778093E80008954091D7
:101BE000E4005091E50024E68091EC0080FF24C0E1
:101BF0008091E80080FD1EC080918501882311F44A
:101C000082E00895853011F483E008958091EB001F
:101C100085FF02C081E008958091E4009091E50085
:101C20008417950709F3222311F484E008952150C5
:101C3000AC01DACF80E008958091E80082FFDCCF2C
:101C4000F9CFEF92FF920F931F934FD056D008ED2C
:101C500010E0F80180818F778083808180688083A5
:101C600080818F7D808319BC109285011092810143
:101C7000109283011092820180EEE82EF12CF70180
:101C800080818B7F8083F80180818160808380E008
:101C900060E042E00FDFE1EEF0E080818E7F808344
:101CA000E2EEF0E0808181608083808188608083C3
:101CB000F70180818E7F8083F8018081806180833D
:101CC0001F910F91FF90EF900895E8EDF0E0808173
:101CD0008F7E8083E7EDF0E080818160808384E007
:101CE00082BF81E080938401ACCFE8EDF0E0808199
:101CF0008E7F80831092E20008951092DA00109295
:101D0000E10008951F920F920FB60F9211242F93A6
:101D10003F934F935F936F937F938F939F93AF9373
:101D2000BF93EF93FF938091E10082FF0BC08091FE
:101D3000E20082FF07C08091E1008B7F8093E10089
:101D40000E945E028091DA0080FF1FC08091D8005F
:101D500080FF1BC08091DA008E7F8093DA00809133
:101D6000D90080FF0DC080E189BD82E189BD09B441
:101D700000FEFDCF81E0809385010E945B0205C0DB
:101D800019BC109285010E945C028091E10080FFE5
:101D900018C08091E20080FF14C08091E2008E7F25
:101DA0008093E2008091E20080618093E200809164
:101DB000D80080628093D80019BC85E080938501AB
:101DC000D5D18091E10084FF2FC08091E20084FF93
:101DD0002BC080E189BD82E189BD09B400FEFDCF41
:101DE0008091D8008F7D8093D8008091E1008F7E14
:101DF0008093E1008091E2008F7E8093E2008091E9
:101E0000E20081608093E20080918101882311F0DB
:101E100084E007C08091E30087FD02C081E001C03B
:101E200083E080938501A2D18091E10083FF22C0ED
:101E30008091E20083FF1EC08091E100877F809344
:101E4000E10082E080938501109281018091E100A0
:101E50008E7F8093E1008091E2008E7F8093E2008C
:101E60008091E20080618093E20080E060E042E0E7
:101E700021DE7CD1FF91EF91BF91AF919F918F9126
:101E80007F916F915F914F913F912F910F900FBE76
:101E90000F901F9018951F93DF93CF93CDB7DEB7A8
:101EA000AC970FB6F894DEBF0FBECDBFE6E8F1E009
:101EB0008091F100819321E0EE38F207C9F70E948A
:101EC0007F038091E80083FF39C1809186013091C2
:101ED0008701353009F487C0363040F43130C9F11C
:101EE000313070F0333009F029C133C0383009F493
:101EF000F6C0393009F405C1363009F01FC196C06B
:101F0000803821F0823809F019C108C0909182010F
:101F100080918301882399F0926011C080918A0199
:101F20008F708093E9008091EB0090E025E096951A
:101F300087952A95E1F7982F91701092E90080918A
:101F4000E800877F8093E8009093F1001092F10001
:101F5000D1C0882319F0823009F0F0C090E08F7171
:101F60009070009721F0029709F0E8C00CC08091B2
:101F70008801813009F0E2C010928301333069F5A5
:101F8000809383012AC080918801882331F52091B4
:101F90008A012F7009F4D2C02093E9008091EB00F0
:101FA00080FF1BC0333021F48091EB00806213C0AE
:101FB0008091EB0080618093EB0081E090E002C0B3
:101FC000880F991F2A95E2F78093EA001092EA00A1
:101FD0008091EB0088608093EB001092E900809183
:101FE000E800877F8AC0882309F0A8C01091880183
:101FF0001F778091E3008078812B8093E3008091AC
:10200000E800877F8093E800C9DD8091E80080FFC9
:10201000FCCF8091E30080688093E300112311F4EA
:1020200082E001C083E08093850188C080588230BF
:1020300008F084C0809188019091890123E08C3D53
:10204000920709F033C083E08C838AE28B837FB7E9
:10205000F894DE0115966EE040E050E011E2E62FC4
:10206000F0E010935700849140FF03C082958F7079
:102070006F5F8F70282F30E08A3018F0C901C79643
:1020800002C0C901C0968D939D934F5F5F4F44314D
:10209000510529F77FBF8091E800877F8093E80092
:1020A000CE0103966AE270E098DB13C060918A016A
:1020B000AE014F5F5F4F0E943B04BC01009709F4E3
:1020C0003DC08091E800877F8093E80089819A81F4
:1020D00034DC8091E8008B778093E8002FC0803853
:1020E00069F58091E800877F8093E8008091810105
:1020F0008093F1008091E8008E778093E8004EDDB8
:102100001DC08823D9F4909188019230B8F4809151
:10211000E800877F8093E800909381013FDD809104
:102120008101882331F48091E30087FD02C081E0C2
:1021300001C084E0809385010E948B038091E800B8
:1021400083FF0AC08091E800877F8093E800809138
:10215000EB0080628093EB00AC960FB6F894DEBF84
:102160000FBECDBFCF91DF911F91089508951F93AA
:1021700080918501882371F01091E9008091EC0035
:102180001092E9008091E80083FF01C084DE1F7097
:102190001093E9001F9108954F925F926F927F9282
:1021A0008F929F92AF92BF92CF92DF92EF92FF9267
:1021B0000F931F93DF93CF9300D00F92CDB7DEB76D
:1021C0007C016DB67EB680918501843009F09AC09D
:1021D0002091E4003091E500F70182859385821714
:1021E000930709F48FC081818F708093E9008091FB
:1021F000E80085FF87C05DB64EB6408550E08DB7DC
:102200009EB7841B950B0FB6F8949EBF0FBE8DBF73
:102210000DB71EB70F5F1F4F19821B821A82C02E87
:10222000912EC80160E070E050E02AD3C701BE01E2
:102230006F5F7F4F40E098018E010E5F1F4F0E943D
:10224000EA02882EF70184859585892B19F4AA2442
:10225000BB240BC020E0F70186859785892B09F008
:1022600021E081E02827A22EBB24F70106811781F7
:102270000115110511F4DD2412C04A815B818C2DFA
:10228000992DB801E7D2DD24009711F0DD24D39415
:10229000F7014085C8016C2D792D50E0E8D28A8184
:1022A0009B81892B01F1882021F4DD2011F4AB28DA
:1022B000D1F0F701848595859787868781818F7016
:1022C0008093E9008981882311F08093F1006A816D
:1022D0007B818C2D992D40E050E09ADB8091E800C5
:1022E0008E778093E8008091E4009091E500F701FB
:1022F00093878287252D342DC9010FB6F8949EBF90
:102300000FBE8DBF0FB6F8947EBE0FBE6DBE0F9090
:102310000F900F90CF91DF911F910F91FF90EF9051
:10232000DF90CF90BF90AF909F908F907F906F90F5
:102330005F904F900895CF93DF93DC010996FC01E5
:1023400087E0EF0119928A95E9F781E019968C935D
:10235000199784EF91E01D969C938E931C9783E0D0
:1023600014968C931497CD01019661E0DBDB81110B
:1023700081E0DF91CF9108956F927F928F929F922B
:10238000AF92BF92CF92DF92EF92FF920F931F9383
:10239000DF93CF9300D00F92CDB7DEB76C016DB64F
:1023A0007EB68091E80083FF1AC1F601808190E03B
:1023B00020918A0130918B012817390709F00FC14C
:1023C00080918701833009F4B2C0843030F48130C9
:1023D00071F0823009F003C1E6C08A3009F4CBC045
:1023E0008B3009F4B5C0893009F0F9C05CC0809128
:1023F0008601813A09F0F3C09DB68EB61B821A821F
:1024000080918801109189018983F601408550E00F
:102410008DB79EB7841B950B0FB6F8949EBF0FBE69
:102420008DBFEDB6FEB60894E11CF11CBE2CAF2C9E
:10243000C70160E070E050E023D21150C601BE0138
:102440006F5F7F4F412F97018E010E5F1F4F0E94DC
:10245000EA02F601268137812115310529F04085F0
:10246000C901B70150E003D21092E9008091E80061
:10247000877F8093E8008981882311F08093F100A1
:102480006A817B818B2D9A2DA8D98091E8008B776A
:102490008093E800292D382DC9010FB6F8949EBF0E
:1024A0000FBE8DBF9CC080918601813209F097C01C
:1024B0009DB68EB600918C0110918D01A09088017F
:1024C000B09089018DB79EB7801B910B0FB6F89421
:1024D0009EBF0FBE8DBFEDB6FEB60894E11CF11C89
:1024E0008091E800877F8093E800C701B801DFD9B9
:1024F0008091E8008E778093E80080E090E0AA2049
:1025000011F081E090E0BA94E80EF91E081B190B57
:10251000C6016A2D4B2D97010E948002892D982DAE
:102520009C010FB6F8943EBF0FBE2DBF58C08091DE
:102530008601813A09F053C08091E800877F80933B
:10254000E8008091E80080FFFCCFF60181853FC064
:1025500080918601813209F042C08091E800877F36
:102560008093E8001BDB90E080918801811191E06D
:10257000F601918734C080918601813281F5809186
:10258000E800877F8093E80009DB809188019091C3
:102590008901807036E0969587953A95E1F7F601C6
:1025A000958784871CC080918601813AC1F480910F
:1025B000E800877F8093E8008091E80080FFFCCFEF
:1025C000F601848595859695879596958795809350
:1025D000F1008091E8008E778093E800DFDA0FB693
:1025E000F8947EBE0FBE6DBE0F900F900F90CF91EE
:1025F000DF911F910F91FF90EF90DF90CF90BF90F0
:10260000AF909F908F907F906F900895629FD001C0
:10261000739FF001829FE00DF11D649FE00DF11D9D
:10262000929FF00D839FF00D749FF00D659FF00D4C
:102630009927729FB00DE11DF91F639FB00DE11D39
:10264000F91FBD01CF0111240895CF93DF93BC0181
:102650008230910510F462E070E0A0919001B09199
:102660009101ED01E0E0F0E040E050E021C0888120
:1026700099818617970769F48A819B81309719F0B1
:102680009383828304C09093910180939001FE0113
:1026900034C06817790738F44115510519F08417CB
:1026A000950708F4AC01FE018A819B819C01E90138
:1026B0002097E9F641155105A9F1CA01861B970B30
:1026C000049708F4BA01E0E0F0E02AC08D919C91F3
:1026D000119784179507F9F46417750781F412961A
:1026E0008D919C911397309719F09383828304C046
:1026F0009093910180939001FD0132964FC0CA01E1
:10270000861B970BFD01E80FF91F619371930297E8
:102710008D939C9343C0FD01828193819C01D901DB
:102720001097A1F680918E0190918F01892B41F431
:10273000809136019091370190938F0180938E01A3
:1027400040913801509139014115510541F44DB77F
:102750005EB78091340190913501481B590B20914F
:102760008E0130918F0124173507B0F4CA01821B06
:10277000930B8617970780F0AB014E5F5F4F84176E
:10278000950750F0420F531F50938F0140938E01D5
:10279000F9016193719302C0E0E0F0E0CF01DF91B5
:1027A000CF910895CF93DF93009709F450C0EC01C7
:1027B00022971B821A82A0919001B09191011097EB
:1027C00009F140E050E0AC17BD0708F1BB83AA83D4
:1027D000FE0121913191E20FF31FAE17BF0779F48B
:1027E0008D919C911197280F391F2E5F3F4F398390
:1027F000288312968D919C9113979B838A83411510
:10280000510571F4D0939101C093900120C01296AC
:102810008D919C911397AD01009711F0DC01D3CFFE
:10282000FA01D383C28321913191E20FF31FCE17B6
:10283000DF0769F488819981280F391F2E5F3F4F88
:10284000FA01318320838A819B8193838283DF9184
:10285000CF910895FB01DC0104C08D910190801996
:1028600021F441505040C8F7881B990B0895FB0193
:10287000DC0102C001900D9241505040D8F70895FC
:10288000DC0101C06D9341505040E0F70895DC0138
:10289000CB01FC01F999FECF06C0F2BDE1BDF89A6B
:1028A000319600B40D9241505040B8F70895F9990F
:1028B000FECF92BD81BDF89A992780B50895DC01BD
:1028C000CB0102C02D9105D041505040D8F708955A
:1028D000262FF999FECF1FBA92BD81BD20BD0FB63C
:1028E000F894FA9AF99A0FBE01960895F894FFCFDA
:1028F00000810800000154010800000000000000F1
:102900000183080000015C010500000000000000D8
:1029100002870800000161010800000000000000BB
:0A292000FFFFFFFF200092010000FE
:00000001FF
